:020000040800F2
:10000000005000206D770008B5770008B57700082C
:10001000B5770008B5770008B57700080000000044
:10002000000000000000000000000000B57700089C
:10003000B577000800000000B5770008B577000824
:10004000B5770008B5770008B5770008B5770008E0
:10005000B5770008B5770008B5770008B5770008D0
:10006000B5770008B5770008B5770008B5770008C0
:10007000B5770008B5770008B5770008B5770008B0
:10008000B5770008B5770008B5770008B5770008A0
:10009000B5770008B5770008B5770008B577000890
:1000A000B5770008B5770008B5770008B577000880
:1000B000B5770008B5770008B5770008B577000870
:1000C000B5770008B5770008B5770008B577000860
:1000D000B5770008B5770008B5770008B577000850
:1000E000B5770008B5770008B57700080000000074
:1000F0000000000000000000000000000000000000
:0C01000000000000000000005FF808F1A3
:100110000348044B834202D0034B03B11847704796
:1001200004020020040200200000000005480649E7
:100130000B1AD90F01EBA301491002D0034B03B1F5
:10014000184770470402002004020020000000004D
:1001500010B5064C237843B9FFF7DAFF044B13B10F
:100160000448AFF300800123237010BD0402002077
:1001700000000000F47F000808B5044B1BB10449DF
:100180000448AFF30080BDE80840CFE7000000005E
:1001900008020020F47F0008A3F5803A704700BFF2
:1001A000154B002B08BF114B9D46FFF7F5FF0021B3
:1001B0008B460F461148124A121A01F079FA0C4B7D
:1001C000002B00D098470B4B002B00D09847002005
:1001D000002104000D000B4801F00CFA01F044FA74
:1001E0002000290006F04CFC01F010FA0000080085
:1001F00000000000000000000000000004020020D9
:10020000E4020020351600083884000800000020B1
:100210000402002004020020E4020020F8B5044695
:100220000D4600F0F5F8174B064693F900300F46DF
:1002300001331AD022462B462046294606F032FAD0
:1002400098B9002200232046294606F021FA60B919
:10025000204629460022002306F0F2F940B101F0C1
:10026000CFF922230026084F036030463946F8BDF7
:1002700001F0C6F9212303600448BDE8F84001F00D
:10028000ADB800BF040000200000F0FFE4830008C8
:100290002DE9F8431D4606460F46144600F084FA41
:1002A000564B804693F90030894601332AD02246C6
:1002B0002B462046294606F0F5F918BB32463B4648
:1002C0003046394606F0EEF9002841D100220023DD
:1002D0003046394606F0B4F9C0B10022002320466A
:1002E000294606F0ADF900283AD12046294601F00A
:1002F0006FF838B1204629460022002306F0AAF9FB
:10030000002858D140464946BDE8F8834046494652
:1003100001F05EF860B3002200234046494606F033
:100320008FF90028EED03046394601F051F8002808
:10033000E8D02046294601F04BF80028E2D001F031
:100340005FF922234FF000084FF000090360D9E75E
:10035000204629460022002306F072F90028D1D059
:100360004FF00008DFF8989040464946BDE8F88312
:100370003046394601F02CF80028CCD020462946DA
:1003800001F026F80028C6D042464B464046494672
:1003900006F088F928BB01F033F92223002203601C
:1003A00039460023304606F055F94FF0000858B999
:1003B000DFF85090A6E701F023F921234FF0000861
:1003C000DFF8449003609DE72046294601F00CF8D1
:1003D00022462B4606F034F90028E9D1DFF82890B0
:1003E00090E701F00DF92121002200230160104661
:1003F000194605F0E7FF8046894683E704000020A0
:100400000000F03F0000F07F0000F0FF000000005F
:100410002DE9F04FB1F5801F85B006460F460B461B
:1004200080F28480024621F00044224300F02181C2
:100430000029C0F261810022D54B05F099FE0B46E0
:10044000D44A064693420F466FF0350E73DCC3F371
:10045000130505F5152C0CF6647C0CF4801C8CF04F
:100460007F5282F440121C1542EA0507A4F2FF34C1
:1004700074440022C84B3046394604EB1C5405F046
:10048000BFFCAB1CC3F31303022B82468B464FF019
:10049000000259DC002306F0D3F8002840F0F28077
:1004A000A7A3D3E900235046594605F061FE024652
:1004B0000B460020B94905F0A3FC524606460F46FC
:1004C0005B465046594605F053FE02460B46304601
:1004D000394605F04DFE06460F46002C00F003811C
:1004E000204605F0DBFD98A3D3E90023804689462A
:1004F00005F03EFE96A3D3E9002304460D46404690
:10050000494605F035FE02460B463046394605F0B1
:1005100077FC52465B4605F073FC02460B462046CC
:10052000294605F06DFC05B0BDE8F08F994A4FF003
:10053000000E93428BDD32463B463046394605F08D
:1005400061FC05B0BDE8F08F4FF0804305F05AFC28
:1005500002460B465046594605F034FF06462046F3
:100560000F4605F09BFD3246CDE902013B46304681
:100570003946CDE9006705F0FBFD02460B46804693
:10058000894605F0F5FD74A3D3E9002306460F461E
:1005900005F0EEFD72A3D3E9002305F033FC3246EB
:1005A0003B4605F0E5FD70A3D3E9002305F02AFCE6
:1005B00032463B4605F0DCFD6DA3D3E9002305F090
:1005C00021FC42464B4605F0D3FD6BA3D3E9002343
:1005D000804689463046394605F0CAFD68A3D3E90E
:1005E000002305F00FFC32463B4605F0C1FD66A333
:1005F000D3E9002305F006FC32463B4605F0B8FD82
:100600000B4602464946404605F0FCFBA5F5C223D1
:10061000C5F5D725A3F27A4351351D43002D064673
:100620000F464BDD00225D4B5046594605F0A0FDBC
:1006300052465B4605F09CFD02460B4680468946C5
:100640003046394605F0DEFBDDE9002305F090FD7C
:1006500006460F46002C57D102460B4640464946F7
:1006600005F0CEFB02460B465046594605F0C8FB46
:1006700067E7002200230020494905F0A3FE05B0EA
:10068000BDE8F08F002C58D0204605F007FD2EA3C2
:10069000D3E9002306460F4605F06AFD2CA3D3E9F3
:1006A000002304460D463046394605F061FD0246FA
:1006B0000B462046294605F0A5FB42E702460B46BD
:1006C0005046594605F09CFBDDE9002305F050FD3E
:1006D00006460F463CB1DDE902891BA3D3E900239E
:1006E0004046494604E732463B465046594605F0E7
:1006F00087FB05B0BDE8F08F024605F081FB0022C4
:10070000002305F05FFE1CE70FA3D3E90023DDE91A
:10071000020105F02DFD0EA3D3E9002304460D468A
:10072000DDE9020105F024FD32463B4605F06AFB97
:1007300002460B4640464946E9E60020002100E714
:10074000555555555555D53F0000E0FE422EE63F24
:10075000763C7935EF39EA3D44523EDF12F1C23F33
:10076000DE03CB966446C73F599322942449D23F77
:10077000935555555555E53F9FC678D0099AC33FC7
:10078000AF788E1DC571CC3F04FA97999999D93FDE
:1007900000005043FFFFEF7F0000F03F0000E03F0C
:1007A000000050C3000000002DE9F04F23F0004589
:1007B00055EA020493B03DD0DFF8B4E121F00044E3
:1007C00074450F4683462EDC1E46944639D0754547
:1007D00029DCDFF89CE1754522D0002F8A4681464E
:1007E000CDE9002336DB4FF00008BCF1000F4CD1FF
:1007F0005F4B9D4200F08E805E4B9D4200F09D80DD
:10080000B6F1804F00F097845B4B9E423DD1002FA4
:100810003BDB4846514613B0BDE8F04F00F016BD33
:10082000BCF1000FD9D004F1404404F5801454EA1F
:100830000B0309D100234F4C1846214613B0BDE8E5
:10084000F08F08B9A542C4DD4C4813B0BDE8F04FA5
:1008500000F0C4BD4A4B9D4275DCA3F154739D4228
:100860000EDD2B15A3F2FF33142B40F36C84C3F180
:1008700034032CFA03F202FA03F3634500F0AC846C
:100880004FF00008BCF1000FB6D04846514600F0CA
:100890009BFDBBF1000F20D124B1364B27F0404225
:1008A0009A421AD1002E05DA02460B460020314941
:1008B00005F088FD002FC1DA04F1404404F58014EE
:1008C00054EA080340F0618402460B4605F098FAAA
:1008D00002460B4605F076FDB0E7FB0F013B0793A0
:1008E00058EA030332D0274B9D424FDD03F10473D6
:1008F0009D4240F3BD83244B9C4240F34183002E34
:1009000040F3418318A3D3E900231046194605F0AC
:100910002FFC93E704F1404303F5801353EA0B03E4
:1009200088D0194B9C4240F35683002EC0F22B8393
:10093000DDE900341846214680E7002EC0F2F3833B
:10094000484651467AE74FF002084EE74A4653467A
:100950004846514605F054FA02460B4605F032FD72
:100960006CE700BFAFF300809C7500883CE4377EE5
:100970000000F07F0000F03F0000E03FE48300084B
:10098000FFFF3F430000E041FFFFEF3FD04B3B4004
:10099000002B40F037830022CE4B05F0E9FB6FF0CF
:1009A00034060C46CC4A2315C4F31304A3F2FF33D8
:1009B00044F07F55944203EB060945F4401540F39B
:1009C0001383C64B9C4240F3E9830023002400229A
:1009D000CDE90C34CDE910340024C14B09F10109F3
:1009E000CDE90823A5F58015DDE908AB2946524677
:1009F0005B46064605F004FA5246CDE90A015B461D
:100A000030462946CDE908AB05F0FCF902460B4615
:100A10000020B34905F0D6FC0A4601461346CDE94D
:100A20000E120246DDE90A0105F0A2FB0A468346E2
:100A30009446002301460020CDE902BC02936B10CE
:100A400043F0005303F50023CDE90412DDE902ABC6
:100A500019192F4604460D4602460B465046594684
:100A600005F086FB02460B46DDE90A0105F0C8F9F0
:100A7000DDE90823CDE90A012046294605F0C0F941
:100A800002460B463046394605F0BAF952465B46F7
:100A900005F06EFB02460B46DDE90A0105F0B0F9F0
:100AA000DDE90E2305F064FBDDE90445CDE908012D
:100AB00022462B462046294605F05AFB72A3D3E96D
:100AC000002304460D4605F053FB71A3D3E9002330
:100AD00005F098F922462B4605F04AFB6EA3D3E9B0
:100AE000002305F08FF922462B4605F041FB6CA34D
:100AF000D3E9002305F086F922462B4605F038FBA2
:100B000069A3D3E9002305F07DF922462B4605F0C1
:100B10002FFB67A3D3E9002305F074F922460646AC
:100B20000F462B462046294605F022FB02460B467F
:100B30003046394605F01CFB04460D46DDE904014C
:100B400052465B4605F05EF9DDE9082305F010FB2F
:100B500022462B4605F056F9524606460F465B469E
:100B60005046594605F004FB00225E4BCDE90A01D0
:100B700005F048F932463B4605F044F902980D4627
:100B800004462B4622465046594605F0F1FA00220B
:100B900082468B46534B2046294605F031F9DDE964
:100BA0000A2305F02DF902460B463046394605F07A
:100BB00027F9DDE9042305F0DBFA224606460F4655
:100BC000DDE908012B4605F0D3FA02460B46304614
:100BD000394605F017F906460F4602460B465046C1
:100BE000594605F00FF934A3D3E9002302980D46C6
:100BF000044605F0BDFA5246CDE904015B462046A5
:100C0000294605F0FDF802460B463046394605F008
:100C1000F7F82BA3D3E9002305F0AAFA2AA3D3E916
:100C2000002306460F462046294605F0A1FA024653
:100C30000B463046394605F0E5F8DDE9102305F0AE
:100C4000E1F8044648460D4605F028FA06460F46E8
:100C5000DDE9040122462B4605F0D4F8DDE90C233A
:100C600005F0D0F832463B4605F0CCF80298324603
:100C70003B4682468B4605F0C3F8DDE90C2305F0C0
:100C8000BFF8DDE904232FE0EF4E454A287ECA3F36
:100C900065DBC9934A86CD3F01411DA96074D13FF0
:100CA0004D268F515555D53FFFAB6FDBB66DDB3F02
:100CB000033333333333E33F000000E009C7EE3F33
:100CC000FD033ADC09C7EE3FF5015B14E02F3EBEA1
:100CD0000000F07F000040438E98030079B60B00BF
:100CE0000000F03F0000084005F08AF802460B467D
:100CF0002046294605F084F8079A08F1FF3313438C
:100D00004FF000064FF000030CBFD34CD34CCDE99D
:100D10000201CDE90434DDE90023104619463246CC
:100D20001F4605F06DF85B46524605F021FADDE9F5
:100D3000002380468946DDE9020105F019FA0246E2
:100D40000B464046494605F05DF83246CDE90001C4
:100D50003B465946504605F00BFA0B460246804684
:100D60008946DDE9000105F04DF8BD4B0446994286
:100D70000D468B4640F30C8101F13F4303F5E00340
:100D8000034340F0F481A0A3D3E90023DDE900018F
:100D900005F038F8424606460F464B46204629469F
:100DA00005F02EF802460B463046394605F070FC39
:100DB000002840F0DC81CBF30A534FF4801200206E
:100DC000A3F2FE3342FA03F35B44C3F30A52A54D88
:100DD000A2F2FF321541C3F3130423EA0501C2F165
:100DE000140A44F48014BBF1000F02460B4644FA87
:100DF0000AFA40464946B8BFCAF1000A05F000F8B1
:100E000080468946DDE9000142464B4604F0FAFF80
:100E10000D464FEA0A5B00247DA3D3E90023204658
:100E2000294605F0A5F9424606460F464B462046A0
:100E3000294604F0E5FF02460B46DDE9000104F017
:100E4000DFFF75A3D3E9002305F092F974A3D3E97A
:100E50000023804689462046294605F089F9024646
:100E60000B464046494604F0CDFF8046894602467F
:100E70000B463046394604F0C5FF32463B46044631
:100E80000D4604F0BDFF02460B464046494604F0BD
:100E9000B7FF2246804689462B462046294605F064
:100EA00067F961A3D3E9002306460F4605F060F910
:100EB0005FA3D3E9002304F0A3FF32463B4605F0CD
:100EC00057F95DA3D3E9002304F09CFF32463B466B
:100ED00005F04EF95AA3D3E9002304F091FF3246FE
:100EE0003B4605F045F958A3D3E9002304F08AFFF7
:100EF00032463B4605F03CF902460B462046294661
:100F000004F07EFF06460F4602460B462046294661
:100F100005F02EF90022CDE900014FF08043304664
:100F2000394604F06DFF02460B46DDE9000105F08D
:100F300049FA424606460F464B462046294605F0EA
:100F400017F942464B4604F05DFF02460B46304619
:100F5000394604F055FF22462B4604F051FF024665
:100F60000B4600203D4904F04BFF8B44BBF5801F2E
:100F7000C0F22E815946DDE9042305F0F9F85DE45D
:100F8000002EFFF6BFAC002300241846214655E48E
:100F9000DFF8D8C021F00043634540F3E280324BD4
:100FA0000B4403430AD142464B4604F029FFDDE9D6
:100FB000002305F063FB00283FF4FDAE24A3D3E932
:100FC0000023DDE9040105F0D3F821A3D3E90023D0
:100FD00005F0CEF832E4002ED5DADDE9003418460B
:100FE00004F10043194629E4002300241A4623464D
:100FF000CDE90C23CDE910230022184B0024CDE9C4
:101000000823F1E40026CDE4FE822B654715973CCA
:1010100000000000432EE63FEF39FAFE422EE63F85
:10102000396CA80C615C20BED0A4BE726937663EE4
:10103000F16BD2C541BDBB3E2CDE25AF6A56113FD8
:1010400093BDBE166CC1663F3E5555555555C53FBF
:1010500059F3F8C21F6EA5010000F0BF0000F03F79
:10106000FFFF8F40FFFF0F0000346F3FFFCB90402A
:10107000714B9C4284DD714B9C423FF740AC002297
:101080006E4B04F0BDFE5EA3D3E9002304460D467B
:1010900005F06EF85CA3D3E9002306460F46204610
:1010A000294605F065F8002282468B46644B2046AF
:1010B000294605F05DF802460B4655A1D1E900012D
:1010C00004F09EFE22462B4605F052F802460B46DF
:1010D00000205C4904F094FE2246CDE902012B4633
:1010E0002046294605F044F802460B46DDE9020198
:1010F00005F03EF848A3D3E9002305F039F802468D
:101100000B465046594604F07BFE02460B46044609
:101110000D463046394604F075FE00208B46824667
:1011200032463B46E0E54A4653460020434905F037
:1011300049F9FFF783BB4A4648465346514605F0F6
:1011400017F8FFF77BBBBCF1000F38D1C3F11403D4
:1011500045FA03F202FA03F3AB4247D0E046FFF749
:101160004BBB384A934247DCB346B24653E62CA306
:10117000D3E90023DDE9040104F0FAFF28A3D3E951
:10118000002304F0F5FFFFF759BBB8F1010F7FF41E
:1011900055AB01F100431946FFF750BB22A3D3E939
:1011A0000023CDE90C2322A3D3E90023CDE91023AA
:1011B0000022254B4FF48024CDE9082314E400F0ED
:1011C00003F9BBF1000F7FF4C1ABD846FFF764BB56
:1011D000524600F095F9CEE602F00102C2F1020893
:1011E000BCF1000F3FF408ABFFF74FBB02F0010268
:1011F000C2F10208FFF700BB1B15DEE5AFF300806C
:10120000000000604715F73F44DF5DF80BAE543E29
:10121000555555555555D53FFE822B654715F73F1A
:101220009C7500883CE4377E0000004003B8E23F34
:1012300006D0CF43EBFD4C3EFEFFEF3F0000F03FFA
:101240000000D03F0000E03F0000F83F2DE9F041F2
:101250005C4E0C468E43054600F09C8000290B46F0
:10126000024652DD5FEA215E00F0A580C3F313035E
:10127000AEF2FF3E43F48013D10F1EF0010F01EBDD
:1012800043034FEA420403D0E40F04EB430394000A
:101290004FF0000C162566464FF400124FEA6E0E12
:1012A000B118994202DC5B1A8E1894445B00013D30
:1012B00003EBD4734FEA52024FEA4404F0D12F46B5
:1012C00020204FF0004209E041D0E10F01384FEA01
:1012D000520201EB43034FEA440441D0B34202EB14
:1012E0000501F1DD002901EB020509DBB0469B1B7E
:1012F000A14288BF03F1FF334646641A1744E4E76E
:10130000002DF3DB06F10108F1E721F0004606436A
:1013100037D0002948D1D40A153B52052146002C6C
:10132000F9D0E50249D4002000E028464900CC026B
:1013300000F10105F9D50C461146AA40C5F120057A
:1013400021FA05F5A3EB000E45EA04038EE7A1425E
:10135000BBD8002901EB0205D2DB98460023CBE77E
:10136000234310D178084FEA6C0303F17F5303F550
:10137000001303EB0E5739461CF0010F18BF40F065
:101380000040BDE8F0817B1C16BF781C0CF1010CFD
:101390004008E8E702460B4604F0EAFE2A462346E8
:1013A00004F030FDBDE8F08104F02AFD02460B4652
:1013B00005F008F8E5E77346B5E7114620254FF03C
:1013C000FF30BDE70000F07F21F000431946704771
:1013D00041F0004101F58010C00F70470020014925
:1013E000704700BF0000F87FF0B5C1F30A5CACF2B3
:1013F000FF36132E83B002460B460C464FEAD175DA
:10140000074656DC002E2BDB3A49314103EA010046
:10141000104353D049080B4052EA03070BD04FF456
:101420008023132E0CBF4FF00047002724EA010150
:1014300043FA06F40C433049234601EBC505D5E9D0
:1014400000453A462046294604F0DCFCCDE900017F
:10145000DDE9000122462B4604F0D2FC03B0F0BDCA
:1014600021F0004101431946F8D0C3F313031F4391
:101470007B423B43640C1B0B640403F4002343EAEC
:1014800004010B461C4901EBC501D1E90067304658
:10149000394604F0B7FCCDE90001DDE90001324630
:1014A0003B4604F0ADFC21F0004444EAC57103B0B2
:1014B000F0BD332E06DDB6F5806F17D01046194605
:1014C00003B0F0BD4FF0FF31ACF2134C21FA0CF138
:1014D0000842F3D049080842ADD04FF0804320EADB
:1014E000010143FA0CFC41EA0C07A4E704F08AFC72
:1014F000B4E700BFFFFF0F001080000800000000ED
:10150000F8B5C1F30A5304460D460E46174673BBA1
:10151000034621F00046334328D0314B002204F02B
:1015200027FE304B04469F420D461ADB0E46C1F3A0
:101530000A53363B40F2FE723B44934220DC002BC0
:101540003DDC13F1350F2CDA4CF250339F4217DC9F
:1015500005F0004343F0D27141F4B731224841F025
:101560001F011BA3D3E9002304F002FEF8BD40F2E3
:10157000FF729342DED102460B4604F043FCF8BDF5
:1015800005F0004444F0FC4141F45F1141F4105176
:1015900011A3D3E90023154841F03C0104F0E8FD14
:1015A000F8BD26F0FF4626F4E006363346EA03553A
:1015B0002046294600220E4B04F0DAFDF8BD26F045
:1015C000FF4626F4E00646EA035520462946F8BDC4
:1015D00059F3F8C21F6EA5019C7500883CE4377E64
:1015E00000005043B03CFFFF59F3F8C29C750088DF
:1015F0000000903C002301461A46184600F064BEE5
:10160000014B1868704700BF0800002008B5074B61
:10161000044613B1002100F0AFFE054B1868836A41
:1016200003B19847204605F027FA00BF7923000848
:101630002080000838B50A4C0A4D641BA4100AD05B
:1016400004F18043013B05EB8305013C55F8043967
:101650009847002CF9D1BDE8384006F0D3BC00BF54
:10166000388400083484000870B50D4E0D4D761B8B
:10167000B61006D00024013455F8043B9847A64222
:10168000F9D1094E094D06F0B7FC761BB61006D00D
:101690000024013455F8043B9847A642F9D170BDA7
:1016A0003084000830840008348400083084000846
:1016B000F0B4860746D0541E002A3CD0CAB2034676
:1016C00002E014F1FF3436D303F8012B9D07F8D163
:1016D000032C29D9CDB245EA05250F2C45EA05454D
:1016E00033D9A4F11006360903F1200707EB0617DA
:1016F00003F1100242E9045542E902551032BA42A0
:10170000F8D1721C14F00C0F03EB021204F00F0658
:1017100013D0331F23F003030433134442F8045B54
:101720009342FBD106F003042CB1C9B21C4403F868
:10173000011B9C42FBD1F0BC704734461346002C81
:10174000F3D1F8E714460346C2E71A462646E0E717
:10175000002B2DE9F0471E46BBBF03F100431E4698
:1017600000232D2388B0149CDDE9121A662C9046C4
:10177000109D0B701AD0462C18D024F02003452B56
:101780004FF00201334635D007AFCDE9001506A969
:10179000CDE90317CDF808A000F0D4FE672C07466A
:1017A00033D1119BDB0732D4079B1CE0032107AF29
:1017B000009106A93346CDE903174246CDE9015A07
:1017C00000F0C0FE07463B7800EB0509302B2BD01C
:1017D000DAF800504D44404631460022002304F020
:1017E0002FFFB0B12B463846159ADB1B136008B0AB
:1017F000BDE8F08707AF0091013506A9CDE90317D1
:10180000CDE9015A00F09EFE0746472CC9D03D4461
:10181000E1E7079B9D42E6D930215A1C07921970D7
:10182000079BAB42F9D3DEE7404631460022002356
:1018300004F006FF0028CBD1C5F10105CAF800501D
:10184000C8E700BF0029F0B4B4BF2D232B23044602
:10185000B8BF4942092904F8022B82B043702DDD3C
:101860000DF1070635461A4F01E01546194687FB6C
:101870000132CB17C3EBA20303EB8302A1EB4202BD
:101880003032632905F8012C05F1FF32EDDC3033ED
:10189000A91EDBB28E4202F8013C0BD9214601E0C1
:1018A00012F8013BB24201F8013BF9D10DF10903F5
:1018B0005D1B2C44201A02B0F0BC70473023041D7D
:1018C0001944C1708370201A02B0F0BC704700BF89
:1018D000676666662DE9F04F91B00C46DDF868B09A
:1018E00016461F46054601F0BDFD036818460A93DB
:1018F00000F0BCFC00230E93DBF8003022680733B5
:101900000B90099223F00703D3F804A0D3F80080CA
:1019100051464046083394F81890CBF800302AF02E
:10192000004BC4E912014FF0FF325946B74B04F0A7
:10193000B9FE48B9404659464FF0FF32B34B04F068
:1019400093FE002800F08A804246404653465146A6
:1019500004F0A8FE002840F04A82099B606843F426
:101960008061431C32D0B9F1670F70D0B9F1470FD5
:101970006DD04FF0000C216042460DF1380E019100
:101980000DF134080DF133010090CDE902185346F2
:10199000CDF81090CDE905EC2846FFF7D9FE80463A
:1019A000B9F1650F0D9B39D8013B19464A4604F140
:1019B00050000D93FFF746FF0E9A82461318012A36
:1019C000236140F38C810133236139E0062060609C
:1019D0004FF0000C216042460DF1380E01910DF1DF
:1019E00034080DF1330153460090CDE90218CDF8CB
:1019F0001090CDE905EC2846FFF7AAFE09F0DF03B9
:101A0000472B8046CCD10D9BD91C80F2E580A9F1F3
:101A100002095FFA89F9B9F1650FC5D9B9F1660F05
:101A200000F0E1800E9A9A4240F3E880002BCCBF90
:101A30000121C3F102010A4422614FF0000AA365AB
:101A40009DF833301BB32D2384F843301FE000286A
:101A500040F01581012318466360B9E740465146BE
:101A60000022002304F0F6FD10B12D2384F843304A
:101A7000099B674A23F004032360664B0321B9F1F5
:101A8000470F94BF904698464FF0000A2161009797
:101A900033460FAA2146284600F0CAF9013024D067
:101AA000236858052CD44246236931462846B84756
:101AB00001301AD0226892070F98E3681AD51A1AD3
:101AC000002A17DD4FF0000804F1190904E0E3686B
:101AD0000F981A1A42450DDD01234A463146284621
:101AE000B847013008F10108F1D14FF0FF3011B0D3
:101AF000BDE8F08F9842B8BF184611B0BDE8F08F2E
:101B0000B9F1650F33D9D4E912010022002304F0A2
:101B100097FD002800F0828001233F4A3146284685
:101B2000B8470130E1D0DDE90D239A4202DB22689B
:101B3000D107C0D5DDE90A2331462846B847013030
:101B4000D3D00E9B012BB5DD4FF0000804F11A092C
:101B500003E00E9B013B4345ACDD01234A46314681
:101B60002846B847013008F10108F2D1BDE70E9AC6
:101B7000012A40F3A0800123424631462846B84757
:101B80000130B2D0DDE90A2331462846B84701309A
:101B9000ABD0D4E9120100220023DDF8389004F024
:101BA0004FFD002800F09680B9F1010F40F38E80C0
:101BB0004FF0000804F11A0904E00E9B013B434575
:101BC00040F3848001234A4631462846B847013015
:101BD00008F10108F1D188E7626893423FF717AF37
:101BE0004FF067091EE7002B62687DDD2361002A44
:101BF00000F0AB8001321A4422611EE722682361A3
:101C0000D2077FF51AAF5A1C226116E7FFFFEF7F5C
:101C1000E4820008E8820008F48200080D9B002B93
:101C200069DD0E9BD4F858A05345A8BF5346002B3E
:101C30009B4608DD424631462846B84701303FF40E
:101C400054AFD4F858A02BEAEB7BAAEB0B03002B84
:101C500040F3888004F11A034FF000099A4604E02B
:101C6000A36DA3EB0B024A457BDD012352463146AF
:101C70002846B847013009F10109F1D135E74FF0A5
:101C8000000C216042460DF1380E01910DF134082F
:101C90000DF13301CDE9021853460090CDF81090B4
:101CA000CDE905EC2846FFF753FD0D9B8046D91C76
:101CB000FFF6ADAE90E7D9073FF55DAF4246012391
:101CC00031462846B84701303FF40FAF534604F180
:101CD0005002EAE609F1FF3308F10102F0E7226859
:101CE000D2077FF5ADAE6EE6002A33D12168C90771
:101CF00030D40122A0E601234A4A31462846B8479B
:101D000001303FF4F2AEDDE90D23134324D0DDE9C9
:101D10000A2331462846B84701303FF4E6AE0D9B12
:101D2000002B7CDA4FF0000904F11A0A03E00D9B46
:101D30005B424B4573DD0123524631462846B84786
:101D4000013009F10109F2D1CFE62168C8077FF51A
:101D500074AE4FE702326FE62268D3077FF5ABAE71
:101D6000D5E79A46DDE90D218A4202DB2368D807D0
:101D700009D5DDE90A2331462846B84701303FF44A
:101D8000B4AEDDE90D215245A1EB0203CCBF99466B
:101D9000A1EB0A09B9F1000F0BDD08EB0A024B4673
:101DA00031462846B84701303FF49FAEDDE90D23A8
:101DB0009B1A29EAE979A3EB0903002B7FF77AAE96
:101DC0004FF0000804F11A0A07E0DDE90D239B1A21
:101DD000A3EB090343457FF76DAE0123524631461D
:101DE0002846B847013008F10108EED17DE6BAF186
:101DF000000FB8BF2D234FF00301B8BF84F8433064
:101E0000099B094A23F004032360084B2161B9F1BF
:101E1000470F94BF904698464FF0000A37E6424677
:101E20000E9B42E6F4820008EC820008F082000873
:101E30002DE9F0470C460969A56891468D42B8BF67
:101E40000D46156094F8431006461F46DDF82080C5
:101E500011B16A1CC9F80020236899065CD5D9F82D
:101E600000200232C9F80020236813F0060F19463B
:101E70001DD1E1688A1A002AD8BF194617DD00254E
:101E800004F1190A05E0E368D9F800209B1AAB4277
:101E90000CDD0123524639463046C047013005F17A
:101EA0000105F0D14FF0FF30BDE8F087216894F8CC
:101EB0004330003318BF01238A060AD53021E218C7
:101EC00082F8431094F845105A1C224482F84310BB
:101ED000023304F1430239463046C0470130E1D0B5
:101EE0002368A26803F00603042B21691DD08A42EF
:101EF00026DD4FF00009521A914400251A3401E002
:101F00004D451DDA0123224639463046C04701308F
:101F100005F10105F4D1C5E713F0060F13D094F8CD
:101F20004330003318BF0123D3E7D9F80000E3683A
:101F30008A42A3EB000323EAE379DCDC002BDCDC40
:101F40000020BDE8F087E168D9F800208A1A002A4D
:101F5000D8BF194693DCAAE72DE9F0430C46097E69
:101F600085B06E2906461746984604F1430C0C9836
:101F70006DD039D9732900F0F48044D9752900F067
:101F80000281782940F00F8178232268DFF854E23B
:101F900084F845300168150651F8043B016040F1B2
:101FA000A180D10744BF42F020022260002B00F044
:101FB00093801022002184F8431060680028A060FC
:101FC000C0F2C680216821F004012160002B40F09E
:101FD000A280002840F0BE806546082A00F0AB8051
:101FE000ACEB0503236141E0632900F0E3801AD8DC
:101FF000002938D0582940F0D68084F8451022684E
:10200000DFF8E4E1C6E76F2900F0BD80702940F0F9
:10201000CA8078232268DFF8CCE142F020022260F7
:1020200084F84530B6E7642902D0692940F0BB80C6
:1020300022680368110603F1040557D51968056085
:102040000B46002959DB0A22DFF89CE1B5E703685B
:1020500022681D1D6169056015061B6802D45006C3
:1020600000F1BB801960002365462361CDF8008034
:102070003B4603AA21463046FFF7DAFE013020D066
:102080002A46236939463046C047013019D02268B4
:1020900003989207E36819D51A1A002A16DD00255D
:1020A00004F1190904E0E36803981A1AAA420DDD45
:1020B00001234A4639463046C047013005F1010543
:1020C000F1D14FF0FF3005B0BDE8F0839842B8BFC2
:1020D000184605B0BDE8F0832168102221F02001E8
:1020E000216067E7500648BF9BB25AE75106A5D565
:1020F000B3F9003005601946A3E72D2061685B4203
:10210000002984F84300A16002DB22F0040222606F
:102110000A22DFF8D4E0654600E00B46B3FBF2F19B
:1021200002FB11301EF80000934205F8010DF4D2B5
:10213000082A7FF455AF2368DB077FF551AF62684B
:1021400023699A423FF74CAF3023013D2B7047E79C
:10215000002BE0D19EF8003004F1420584F84230B3
:102160003BE703686268191D01601D68002128466D
:1021700001F090F9002832D0401B606020610023FC
:1021800084F8433072E72268036812F0800F03F18D
:1021900004051AD01B6805606F290CBF08220A22AB
:1021A000DFF844E006E7012384F84210236104F1DC
:1021B0004205E4E70122036804F14205191D1B688A
:1021C000016084F842302261D9E712F0400F0DBF60
:1021D0001B6805601B880560DEE7198043E76068BF
:1021E000CCE700BF0C830008F88200080CB470B57F
:1021F0006FF000459CB020AC54F8042B094E0291BE
:102200000691234602A901940795CDE9045602F0F0
:10221000A5F80022029B1A701CB0BDE8704002B005
:10222000704700BF0802FFFF0EB4034630B56FF0E1
:1022300000449CB01FA951F8042B0A480A4D029390
:10224000069301910B46006802A90794CDE9044565
:1022500002F084F80022029B1A701CB0BDE83040E6
:1022600003B07047080000200802FFFF20F00301C0
:1022700010F00300C0F1000051F8043B00F1040C21
:102280004FEACC0C6FF000021CBF22FA0CF2134391
:102290004FF0010C4CEA0C2C4CEA0C4CA3EB0C025A
:1022A00022EA030212EACC1204BF51F8043B0430C4
:1022B000F4D0C2F1000102EA0102B2FA82F2C2F1E4
:1022C0001F0200EBD20070472DE9F041264C82B08E
:1022D00025680DB36C681F2C42DC9846064690B109
:1022E000D5F8880038B3D0F800310127A74047EA75
:1022F000030C022E00EB840340F82420C0F800C138
:10230000C3F8808011D00020631C02346B6045F854
:10231000241002B0BDE8F081144E154D2660EDB1D9
:102320002C683546C6F88840D4E7D0F804311F43FE
:10233000C0F80471E7E70F4BCDE9001283B14FF409
:10234000847001F097F858B1DDE9001200276C683D
:102350003B46C0E94077C5F88800C6E73546B9E78F
:102360004FF0FF30D5E700BFAC0200202002002074
:1023700000000000753400082DE9F04F0F464FF0C3
:10238000010ADFF88C8083B0D8F8005001908DB13D
:102390006C68D5F88860013C0CD405F1080B67B176
:1023A0002EB106F1800353F82430BB4205D014F15E
:1023B000FF34F4D203B0BDE8F08F6B685BF82420E3
:1023C000013BA34216BF00236C604BF82430002A67
:1023D000EDD0D5F80490B6B1D6F800110AFA04F39E
:1023E0000B4210D0D6F8040156F8241003420CD149
:1023F000019890476B68D8F800204B4501D1AA425C
:10240000D5D01546C3E79047F4E708469047F1E773
:10241000AC020020000000002DE9F04F03690E69B6
:1024200083B0B342C0F28980013E01F1140500F18E
:10243000140955F8263059F8262001338246B00099
:10244000009005EB00089A424844B2FBF3F7019074
:102450003CD30022AE461446CC465EF8043BDCF882
:1024600000001FFA83FB07FB0B221B0C4FEA124BE9
:1024700007FB03BB93B2E31A82B21FFA8BF4134437
:10248000C4EB104404EB23449BB243EA0443F045FD
:102490004CF8043B4FEA24444FEA1B42DDD2009B38
:1024A00059F8033093B9019A131F99450CD252F889
:1024B000043C4BB9A2F1080302E01A68043B1AB9C4
:1024C000994506F1FF36F8D3CAF81060504601F07E
:1024D0007BFB00282DDB48460023013755F8041B01
:1024E00004688AB29A1A0B0CA1B20A44C3EB1443D3
:1024F00003EB224392B242EA0342A84540F8042B80
:102500004FEA2343EAD259F8262009EB860382B921
:102510001A1F91450BD253F8042C42B9083B02E034
:102520001A68043B1AB9994506F1FF36F8D3CAF880
:102530001060384603B0BDE8F08F002003B0BDE85E
:10254000F08F00BF2DE9F04F16461F46456A97B041
:102550000446CDE90267002D00F064832A6862B169
:102560004FF0010C6B6811460CFA03F5C2E9013516
:1025700001F08CF80022636A1A603E1EB4BF01238A
:102580000023239AB8BF26F000461360764BB8BFED
:102590000396B34300F0B080DDE9022310461946EC
:1025A00000220023CDE9080104F04AF8074678B17B
:1025B0000123229A1360249B002B00F04C836B4B69
:1025C000249A1360013B0493049817B0BDE8F08F80
:1025D00014AA15ABCDE90032DDE908892046424650
:1025E0004B4601F01FFC350D834640F09B80DDE932
:1025F0001485454405F23243202B40F3FC83C3F19C
:1026000040039E40029B05F2124023FA00F0304343
:1026100003F034FD02460120013D0D90A1F1F87355
:10262000104619460022524B03F0EAFB48A3D3E9B7
:10263000002303F09DFD48A3D3E9002303F0E2FB50
:10264000064628460F4603F029FD45A3D3E900239B
:1026500003F08EFD02460B463046394603F0D2FBAE
:1026600006460F4604F034F8002282460023304626
:10267000394603F0EFFF002840F0E082A8EB0505A3
:102680006B1EBAF1160F059300F2C182DDE9080155
:10269000384B03EBCA03D3E9002303F0DBFF002828
:1026A0006ED000230C93059B0AF1FF3A002BC0F279
:1026B000B4824FF00009BAF1000F67DACAF10003E3
:1026C0000B93209BA9EB0A09092BCDF818A0626A8D
:1026D0004FF0000A64D8052B40F38B830025043BA0
:1026E0002093209B023B032B00F27C86DFE813F053
:1026F000A404A1047A04940442F20F73229AC6F34C
:1027000013061360029B334319D1249B002B00F066
:102710007886194B04930833249A0498136017B0F1
:10272000BDE8F08FC9F3130141F07F534246A5F293
:10273000FF350D9743F44013DDF8508070E7249B7C
:10274000002B40F03D840D4B04933DE7AFF3008038
:1027500061436F63A787D23FB3C8608B288AC63FA7
:10276000FB799F501344D33F0000F07FF5820008AF
:102770000000F83F38800008208300082C83000800
:10278000059B0C90002BC0F248828146059B626A33
:102790005344CDE9053A00230B93209B092B9AD98A
:1027A00000230125209321934FF0FF330A950793CF
:1027B0000021079B51601093204600F027FF0490F2
:1027C000002800F01786636A049A1A60079B0E2B94
:1027D00000F23481002D00F031810699002940F388
:1027E0008284AA4B01F00F0203EBC2030D11D3E95F
:1027F0000023CDE90E23EA0640F14B84DDE9080110
:10280000A34B0327D3E9082303F0DCFDCDE9020144
:1028100005F00F057DB1DDE90E019D4EEB0704D5F6
:10282000D6E9002303F0A4FC01376D1006F1080679
:10283000F4D1CDE90E01DDE90201DDE90E2303F05B
:10284000C1FDCDE902010C9B43B1DDE9020100228B
:10285000904B03F0FFFE002840F04885384603F017
:102860001DFCDDE9022303F083FC8B4B002203F007
:10287000C9FAA1F15073CDE90E010F93079B002B0C
:1028800000F0BC80069B1293079B1193DDE9026761
:102890003946304603F01CFF054603F0FFFB0246B5
:1028A0000B463046394603F0ABFA119A774B064691
:1028B00003EBC2030F46DDE90E120A98CDE90212BE
:1028C00053E90223049930355FFA85F84D1C00283E
:1028D00000F09F840020714903F074FDDDE90223BC
:1028E00003F08EFA049B324683F800803B46CDE924
:1028F000020103F0CDFE002840F0E68432463B465C
:102900000020644903F07CFA02460B46DDE902012F
:1029100003F0BEFE002840F05D85119B012B00F006
:102920008980049ACDF844901344CDF84CA0CDF89A
:1029300038B09946DDE902ABA0460FE032463B468F
:102940000020544903F05CFA52465B4603F082FED5
:10295000002840F010854D4500F016855046594638
:1029600000224F4B03F004FC00224D4B82468B4665
:102970003046394603F0FCFB0F46064603F0A8FE3E
:10298000044603F08BFB02460B463046394603F003
:1029900037FA3034E4B205F8014B52465B4606463E
:1029A0000F4603F057FE0028C8D04446129BDDF8BE
:1029B00038B0013306935946204600F067FE0023E5
:1029C0002B70229B1A46069B1360249B002B3FF41E
:1029D000FBAD04981D6017B0BDE8F08F384603F0DA
:1029E0005DFBDDE9022303F0C3FB2B4B002203F068
:1029F00009FAA1F15073CDE90E010F930022DDE930
:102A00000201284B03F0FCF9DDE90E783A46434613
:102A100005460E4603F03CFE0746002840F0E383DF
:102A2000DDE90E01024601F100432846314603F07C
:102A300011FE30BBDDE90823CDE90223159B002BF5
:102A4000C0F2C780069A0E2A00F3C3800F4B03EB37
:102A5000C203D3E9009A219B002B25DA079F002FA0
:102A600022DC40F0788400220E4B4846514603F0A9
:102A70007FFBDDE9022303F001FE002800F0B483B0
:102A8000079F3E46219B049DDB43F2E2388000080D
:102A9000288100080000F03F00001C400000E03FDB
:102AA0000000244000001440DDE902674A46534616
:102AB0003046394603F086FC03F00AFE804603F0F8
:102AC000EDFA4A46534603F053FB0246304646466B
:102AD0000B46394603F094F9049D3036069F05F8FD
:102AE000016B079E0137012E02460B46069744D024
:102AF0000022C44B03F03CFB0022002306460F4695
:102B000003F09EFD00287FF456AFCDF808B04FF0DB
:102B10000108DDF81CB005940CE00022B94B03F06D
:102B200027FB0022002306460F4603F089FD0028FC
:102B300040F050834A4653463046394603F042FC43
:102B400003F0C6FD044603F0A9FA4A46534603F0D3
:102B50000FFB02460B463046394603F051F908F1A7
:102B6000010804F13006C34502460B4605F8016B27
:102B7000D3D1A046DDF808B0059C1046194603F0F5
:102B800041F94A46534606460F4603F081FD60B9B7
:102B90004A4653463046394603F052FD00283FF47A
:102BA0000AAF5FEAC8717FF506AF15F8018C6B1E9E
:102BB000049A04E09A4200F0BF8313F8018DB8F143
:102BC000390F03F10105F5D008F10102D2B21A70F4
:102BD000F1E60A9A002A44D0209A012A40F376822C
:102BE000079B5F1E0B9BBB42C0F24D82DF1B079B06
:102BF000002BC0F2F482059A4D4611461944059106
:102C000099440121204600F05DFE06462CE0012398
:102C10000C93059B002BBFF64CAD0023C5F10109B9
:102C2000059348E5102000F025FC6062002800F0C4
:102C3000EC83C0E901550560C5609EE4504603F091
:102C40002DFA32463B4603F0FBFC00287FF416AD1C
:102C50000AF1FF3A12E56C4B0493049817B0BDE8F3
:102C6000F08F4D460B9F0A9E002D0BDD059A002A22
:102C700008DDAA421346A8BF2B46A9EB0309ED1AAB
:102C8000D31A05930B9BD3B10A9B002B00F09181C3
:102C9000002F10DD31463A46204600F0CFFE5A465E
:102CA00001460646204600F023FE034659462046CC
:102CB0009B4600F0EBFC0B9BDA1B40F07B81012173
:102CC000204600F0FFFDBAF1000F074600F39E809A
:102CD000209B012B40F37981002308930120BAF156
:102CE000000F40F09F80059A104410F01F0079D02B
:102CF000C0F12003042B40F38E83C0F11C0002447A
:102D0000814405440592B9F1000F05DD59464A4654
:102D1000204600F0F5FE8346059B002B05DD394675
:102D20001A46204600F0ECFE07460C9B002B40F0B4
:102D30002581079B002B40F30B810A9B002B40F061
:102D40008780069B01330693049D4FF00108DDF850
:102D50001C9008E0594600230A22204600F0BCFCE3
:102D6000834608F1010839465846FFF755FBC1452F
:102D700000F1300005F8010BECDC03464FF0000ACF
:102D8000594601222046029300F0BAFE3946834696
:102D900000F01AFF002815F8012C40F382816B1E09
:102DA000049904E0994200F08A8113F8012D392A30
:102DB00003F10105F6D001321A703946204600F0C1
:102DC00065FC002E3FF4F7ADBAF1000F05D0B24517
:102DD00003D05146204600F059FC3146204600F011
:102DE00055FCE8E51C20059B8144034405440593FC
:102DF00089E7012575E4C3F12006029B03FA06F07A
:102E000006E400BF00002440F48200080146524658
:102E1000204600F013FE209B0746012B40F38D81D6
:102E2000002308933B6907EB8303186900F0FAFC61
:102E3000C0F1200057E7314600230A22204600F067
:102E40004BFC109B0646002B40F3BB82CDE906836A
:102E5000002D05DD31462A46204600F051FE06468B
:102E6000089B002B40F09F81B1460499029B884645
:102E700003F001024B1E20990B920A430A92079A13
:102E80001A44089239465846FFF7C6FA314602906E
:102E9000584600F099FE4A4682463946204600F0E0
:102EA000AFFE029BC26805463033002A42D101467C
:102EB0005846079300F088FE29460590204600F00A
:102EC000E5FB059A079B1AB90A99002900F065826B
:102ED000BAF1000F08F10105C0F24781209941EADB
:102EE0000A0A0B9951EA0A0100F03F81002A00F317
:102EF0007D81089A88F80030424500F08481594667
:102F000000230A22204600F0E7FB4E458346314667
:102F10004FF000034FF00A02204613D000F0DCFB14
:102F20004946064600230A22204600F0D5FBA84663
:102F30008146A7E701462046059300F0A7FB012242
:102F4000059BC5E700F0C8FBA8460646814699E701
:102F5000209B022B76DC0A9B002B7FF479AF39464D
:102F60005846FFF759FA069A049D00F130030132E2
:102F7000069205F8013B4FF0000A01E73946584632
:102F800000F022FE0028BFF6D4AE594600230A22E4
:102F9000204600F0A1FB069B834603F1FF380A9B05
:102FA000002B7FF448AF109B002B40F30382079364
:102FB000CAE60B9A5946204600F040FD83467EE65D
:102FC000B84B04930333FFF7A7BBDDE902120029D6
:102FD0007FF482AEC2F31303002B00F0B980029B92
:102FE00008937BE601230A93219B002B54DD1E46A8
:102FF000109307930021172E51607FF7DDAB01205E
:1030000004235B0003F11407B742014600F10100FD
:10301000F7D95160FFF7D0BB01230A93219B069992
:103020000B4410930133012B1E460793B8BF0126B2
:10303000E0E700230A93F1E700230A93D4E7109B0B
:10304000CDE90683079B002B7FF41CAD3946052292
:10305000204600F041FB01460746584600F0B4FD0B
:1030600000287FF70FAD3122049D069B05F8012B48
:103070000133013339462046069300F007FB002E4A
:103080007FF4ABAE97E40B9B0B97FB1A9A44002797
:10309000ADE50227FFF7BEBB012321930793FFF79E
:1030A00087BB03D1029BDB073FF579AE6B1E01E0C6
:1030B00013F8012D302A03F10105F9D07DE6312303
:1030C000069A01320692049A137076E60D9A002A47
:1030D00000F0FF80059A03F233431A444D460592EF
:1030E00099440B9F8DE500F0FE80DDE90801069B09
:1030F0005D426D4B05F00F0203EBC203D3E90023E1
:1031000003F036F82D11CDE9020100F0EC80002328
:103110000227664EEA0705D5D6E9002303F028F812
:1031200001231F446D1006F10806F3D1002B3FF474
:103130008AABCDE90201FFF786BB029B002B7FF42F
:103140006FAEDDE90212C2F31303002B40F047819A
:10315000574B1340002B00F0FC80059B09F101093F
:103160000133059301230893B8E50699002A01F17C
:103170000101069112DD594601222046059300F017
:10318000BFFC3946834600F01FFD0028059B40F335
:10319000EC80392B00F0D780029B3133B24688F89F
:1031A00000304E4609E67168204600F02FFA0546C9
:1031B000002800F03581336906F10C0102339A00D2
:1031C0000C3000F0ADF929460122204600F098FCB1
:1031D00081464AE6DDF808B0059CFFF7ECBB079B8B
:1031E000A9EB03050DE500273E463CE7069A392B7F
:1031F00002F10102069200F0A6800133B24688F87F
:1032000000304E46D9E5069AB246013206924E4645
:10321000B6E5DDE9020102F0ABFF049BCDE9020156
:1032200083F80080119B012B22D0119B049ACDF8CA
:1032300038901344994600221E4B3046394602F01E
:1032400097FF0F46064603F043FA804602F026FF3A
:1032500002460B463046394602F0D2FD08F13008EE
:1032600005F8018B4D4506460F46E4D1DDF8389050
:103270000022DDE90201104B02F0C4FD32463B465C
:1032800003F0E8F900286AD1DDE9022300200A49A9
:1032900002F0B6FD32463B4603F0FAF900283FF44F
:1032A000C9AB0CE02C830008388000082881000896
:1032B0000000F07F000024400000E03F154615F8B4
:1032C000013C6A1E302BF9D0129B01330693FFF7A5
:1032D00072BB149B059AC3F136031A444D460592FE
:1032E00099440B9F8DE40227FFF7ADBA079B002B93
:1032F0003FF474AB109D002D7FF79CABDDE902011C
:103300000022514B02F034FFCDE90201781C02F09B
:10331000C5FEDDE9022302F02BFF00224B4B02F039
:1033200071FD069AA1F15073013ACDE90E01129296
:103330000F931195FFF7AABA069A0132069231222D
:103340001A70FFF738BB3922B24688F800204E4683
:1033500025E50893C2E400273E46FFF793BB129B86
:103360000133069315F8018C21E47FF417AFDA07D7
:103370007FF514AF0DE74346A0461C46129BDDF8CF
:1033800038B00133069312E4DDF84490DDF84CA028
:10339000DDF838B04446FFF74DBB069A392B02F1F1
:1033A0000102069208F10105CDD0BAF1000F3FF7F6
:1033B000F3AEF3E6209B022B3FF741AECDF8188029
:1033C000CDE5209B022B3FF73AAE109BCDF818803D
:1033D00007933DE5129B01330693FFF7E8BB029B81
:1033E00008931FE5002520465560294600F00EF998
:1033F0000490E0B9164B00224FF4D571154801F046
:10340000FBF8154B0493FFF7DFB80246134BEA2194
:10341000104801F0F1F83FF476ACC0F13C00E2E472
:1034200002460B4B40F2EA210A4801F0E5F84FF062
:10343000FF331A4607931092636A049A21951A6023
:1034400001230A93FFF7FABA0000244000001C4051
:103450007C8300084883000820830008308300082C
:10346000F030704700487047600100200048704706
:1034700060010020024B0146186800F02DBE00BF1D
:1034800008000020024B0146186800F0D1BD00BFC3
:1034900008000020830770B4CDB23DD0541E0AB39B
:1034A0000378AB421FD0431C05E014F1FF3419D35D
:1034B0000278AA4217D013F0030F184603F1010354
:1034C000F3D1032C11D84CB30378AB420BD0044496
:1034D000431C02E00278AA4205D09C42184603F140
:1034E0000103F7D1002070BC704702460E02B6B24D
:1034F0002E4346EA0646136810467340A3F1013195
:1035000021EA030313F0803F02F10402DCD1043C02
:10351000032C1046EFD8D6E71446D2E72046E2E760
:10352000844641EA000313F0030349D1403A23D310
:103530000B6803604B6843608B688360CB68C36033
:103540000B6903614B6943618B698361CB69C3611B
:103550000B6A03624B6A43628B6A8362CB6AC36203
:103560000B6B03634B6B43638B6B8363CB6BC363EB
:1035700040304031403ADBD230320BD30B6803602D
:103580004B6843608B688360CB68C3601030103138
:10359000103AF3D20C3205D351F8043B40F8043B07
:1035A000043AF9D2043208D0D2071CBF11F8013B0B
:1035B00000F8013B01D30B8803806046704700BFD1
:1035C000082A13D38B07B1D010F00303AED0C3F198
:1035D0000403D21ADB071CBF11F8013B00F8013BC2
:1035E000A4D331F8023B20F8023B9FE7043AD9D339
:1035F000013A11F8013B00F8013BF9D20B78037056
:103600004B7843708B7883706046704770B5446A1E
:1036100006460D465CB1E368A3B153F82500E8B156
:10362000026843F825200023C0E9033370BD102051
:10363000FFF720FF04467062E8B10023C0E90133C0
:103640000360C36021220421304600F0E3FC736A6A
:10365000E060DB68002BE0D1002070BD012101FAA1
:1036600005F4621D3046920000F0D4FC0028F3D02F
:10367000C0E90154D7E70246024B6621024800F038
:10368000BBFF00BF308300089083000830B5456A57
:1036900083B0044655B139B1636A4A68DB6853F8B0
:1036A0002200086043F8221003B030BD10200191C1
:1036B000FFF7E0FE0199606220B1C0E901550560A5
:1036C000C560E8E70246024B8A21024800F094FFF9
:1036D0003083000890830008F0B54FF0000C0C46D2
:1036E00005460E6983B001F1140738680CF1010C2E
:1036F00081B202FB0133000C190C02FB00109BB2DB
:1037000003EB0043664547F8043B4FEA1043ECDC0B
:103710003BB1A268B24207DD04EB86020136536179
:103720002661204603B0F0BD61682846013101934F
:10373000FFF76CFF019B0746A0B1226904F10C0161
:10374000023292000C300193FFF7EAFE21463C461C
:103750002846FFF79BFF019B04EB8602013653616D
:103760002661DEE70246024BB521024800F044FF25
:103770007C830008908300082DE9F8431D46264EFF
:10378000083386FB0346092D4FEAE373904607464C
:10379000C3EB66020C46089E36DD012300215B0068
:1037A0009A4201F10101FADC3846FFF72FFF68B3B6
:1037B0000123B8F1090FC0E9043613DC4FF0090802
:1037C0000A3445450CDDA5EB0805254414F8013BFA
:1037D0000146303B0A223846FFF77EFFA542F5D16D
:1037E000BDE8F88304F109094E46444416F8013B4C
:1037F0000146303B0A223846FFF76EFFB442F5D14E
:10380000A8F108044C44DCE70021CDE70246034B55
:10381000CE21034800F0F0FE398EE3387C830008A7
:1038200090830008020C12040346CAB90304102056
:1038300013F07F4F04BF1B02083013F0704F04BF1A
:103840001B01043013F0404F04BF9B000230002BDB
:1038500005DB13F0804F00F1010008BF2020704706
:103860000020E5E70368014613F0070207D0DA07F6
:1038700020D4980722D55B080B600120704798B2CE
:10388000B0B910201B0C13F0FF0F04BF1B0A083047
:103890001A0704BF1B0904309A0704BF9B080230B3
:1038A000DA0703D45B0800F1010005D00B60704714
:1038B0001046E8E700207047202070479B080B6007
:1038C0000220704710B50C460121FFF79FFE02460B
:1038D00018B10123C0E9043410BD034B4FF4A071AB
:1038E000024800F089FE00BF7C8300089083000836
:1038F0002DE9F04F0E69176983B0BE420C4615469C
:1039000005DB3A462B4637460D4616461C46AB6845
:10391000696807EB06084345B8BF0131FFF776FE3B
:10392000009000287FD0009B03F1140A0AEB88095D
:10393000CA4505D25346002143F8041B9945FBD8DC
:1039400004F1140E0EEB860B05F11403DE4503EBB8
:10395000870753D2CDF80480984605E0090C28D19A
:10396000F3450AF1040A47D95EF8041B8EB2002E13
:10397000F4D045465446002355F8041B20688AB20B
:103980001FFA80FC06FB02C2090C000C06FB0101B9
:10399000134401EB13429BB243EA0243AF4244F8A3
:1039A000043B4FEA1243E7D823605EF8041C090C7D
:1039B000D6D0DAF8003040461A4654464FF0000C94
:1039C0000588120C01FB05229BB2944443EA0C4388
:1039D00044F8043B50F8043B22681B0C95B201FBF1
:1039E0000353874203EB1C434FEA134CE8D8F345DB
:1039F00023600AF1040AB7D8DDF80480B8F1000F9B
:103A00000BDD59F8043CA9F104091BB105E059F894
:103A1000043D13B9B8F10108F9D10098C0F810803D
:103A200003B0BDE8F08F0246024B40F25D11024840
:103A300000F0E2FD7C830008908300082DE9F0414E
:103A400012F0030382B0144607462DD10E46A4108F
:103A50001CD07A6A8AB39568002D39D0E3074FF0FD
:103A6000000806D4641011D0286898B10546E30711
:103A7000F8D531462A463846FFF73AFF0346314625
:103A800038461E46FFF702FE6410EDD1304602B004
:103A9000BDE8F0812A4629463846FFF729FF28600D
:103AA000C0F800800546E2E7124A013B52F82320A5
:103AB0000023FFF711FE0646C9E71020FFF7DAFCE6
:103AC0000246786280B10023C0E901330360C3601D
:103AD00040F2712138460192FFF7F4FE0023019A6B
:103AE000054690600360B9E7034B4FF4D771034874
:103AF00000F082FD288000083083000890830008D1
:103B00002DE9F0470E694FEA621A8B685644741C1F
:103B10009C420D4691460746496804DD5B009C4285
:103B200001F10101FADC3846FFF770FD80460028FC
:103B30003FD0BAF1000F00F114000EDD0346002162
:103B40000AF1050A4FEA8A0A08EB0A0243F8041B45
:103B50009342FBD1AAF1140A5044296905F11403D8
:103B600019F01F0903EB810C1BD00022C9F1200EB4
:103B7000196801FA09F1114340F8041B53F8042BAA
:103B80009C4522FA0EF2F3D8002A18BF264602609E
:103B90003846C8F810602946FFF778FD4046BDE872
:103BA000F087043853F8042B9C4540F8042FF9D8CB
:103BB000EEE70246024B40F2D911024800F01CFD2C
:103BC0007C8300089083000830B40B6905460069C7
:103BD000C01A10D19B001435143119442B4401E054
:103BE0009D4208D253F8044D51F8042D9442F7D069
:103BF00003D24FF0FF3030BC7047012030BC70471B
:103C00002DE9F04716460F6912690D46BF1A002FBD
:103C10006AD1920001F1140C06F114010CEB0203BD
:103C2000114401E09C4562D253F8042D51F8044D33
:103C3000A242F7D053D36968FFF7E8FC002860D0B0
:103C4000D5F810C03369143506F11402C76005EBCE
:103C50008C0E02EB830800F11407002100E03746C8
:103C60003E4655F8049B52F8044B1FFA89F30B4467
:103C70001FFA84FA210CA3EB0A03C1EB194101EBF3
:103C800023419BB243EA014390454FEA214146F864
:103C9000043B2C46E3D8AE4516D9324654F8047B93
:103CA000BBB20B44191401EB17419BB243EA014329
:103CB000A64542F8043B4FEA2141EFD80EF1FF3709
:103CC0007F1B27F0030737442BB957F8043D0CF14D
:103CD000FF3C002BF9D0C0F810C0BDE8F0872B46A0
:103CE000012735461E46A6E7F9DB0027A3E700219A
:103CF000FFF78CFC60B101220023C0E90423BDE87A
:103D0000F0870246064B4FF41071064800F074FC31
:103D10000246034B40F23221024800F06DFC00BF26
:103D20007C830008908300080E4B0B40A3F1507376
:103D3000002B02DD0020194670475B421B15132B38
:103D400005DC4FF40022002042FA03F17047143BD7
:103D50001E2BD6BF4FF00042012322FA03F30021AD
:103D6000184670470000F07F2DE9F041076900F127
:103D7000140606EB870757F8048C4046FFF752FD00
:103D8000C0F120030A280B60A7F1040230DD96423F
:103D9000A0F10B031DD257F8080C23B3C3F1200187
:103DA00020FA01F208FA03F848EA0208A7F108022B
:103DB00048F07F55964200FA03F045F4401503D2CF
:103DC00057F80C3CCB401843044629462046BDE832
:103DD000F0813BB108FA03F343F07F5545F44015F9
:103DE0000020F1E7184648F07F5545F44015EBE711
:103DF00096422CBF002257F8082CC0F10B0328FA7A
:103E000003F138BFDA4000F1150341F07F5508FA9D
:103E100003F345F4401543EA020420462946BDE871
:103E2000F08100BF70B5012182B016461C46FFF735
:103E3000EDFB054600284CD02346C4F30A54C3F3D7
:103E400013030CB143F48013002E019322D0684673
:103E50000096FFF707FD002837D0019BC0F1200234
:103E6000009903FA02F20A43C34001936A61002BEE
:103E700014BF02210121AB612961B4B1069BA4F2F8
:103E8000334404441C60079BC0F135001860284689
:103E900002B070BD01A8FFF7E5FC0123019A1946A5
:103EA0002030C5E90432002CE8D1069A05EB8103E5
:103EB000A0F2324010601869FFF7B4FC079BC0EB1A
:103EC00041101860284602B070BDDDE900236A6128
:103ED000CDE70246024B40F20A31024800F08CFB6B
:103EE0007C830008908300082DE9F04383B00F46DF
:103EF00069460646FFF738FF04460D46384601A9D5
:103F0000FFF732FF36693A698946DDE90013B61AD0
:103F1000CB1A03EB4613002B80460BDD05EB035752
:103F20003D4642464B462046294602F04BFA03B036
:103F3000BDE8F083C3EB033309EB03518946F0E797
:103F40001728D0B504460ADD002000260749084F8F
:103F500032463B4602F00CF9013CF9D1D0BD054B8D
:103F600003EBC004D4E90401D0BD00BF0000F03F62
:103F7000000024402880000870B414694E1E02F12D
:103F80001403761103EB840101368B4200EB8606A5
:103F90000CD2041F53F8045B994244F8045FF9D82B
:103FA0008B1A153B23F0030304331844864204D9CB
:103FB000002340F8043B8642FBD870BC704700BF2A
:103FC00003694A11934210B400F114040FDA04EBB0
:103FD00083039C421CD253F8040C043B18B114E038
:103FE00053F8042D8AB99C42FAD310BC704704EBF5
:103FF0008203EEDD11F01F01EBD054F8220020FA0D
:1040000001F202FA01F18842E3D0012010BC7047AE
:104010000020EAE738B502FB01F4214600F05CF825
:10402000054618B122460021FDF742FB284638BD5F
:1040300000293AD038B551F8043C0C1F002BB8BF0A
:10404000E418054600F0D4FB224B1A682AB1A242BC
:104050000DD921686018824221D0626028461C6018
:10406000BDE8384000F0C6BBA34203D81A465368E7
:10407000002BF9D111685018A04217D022D821681E
:104080006018834203BFD3E900030918C4E9001391
:10409000636054602846BDE8384000F0ABBBD2E90D
:1040A00000020144C4E90012D8E7704720680144C7
:1040B000501883421160EDD1D3E900030144C2E9F5
:1040C0000013E7E70C2328462B60BDE8384000F0DA
:1040D00091BB00BFB0020020F8B5CD1C25F0030550
:1040E00008350C2D38BF0C25002D064633DBA942C0
:1040F00031D82A4F00F07CFB3A6852B113685B1B41
:1041000004D43FE023685B1B29D522465468002C69
:10411000F8D1796800293BD02946304600F05AFA98
:10412000431C28D0C41C24F00304A04205D0211A4B
:10413000304600F04FFA01301DD02560304600F0C7
:1041400059FB04F10B0020F00700231DC21A01D017
:104150001B1AA350F8BD0C2200203260F8BD0B2BB7
:1041600005D8A242636811D05360E7E71446236084
:104170001C442560E2E70C233046336000F03AFB34
:104180000020F8BD0B2BF1D8144653683B60D5E7EF
:10419000304600F01FFA7860BEE700BFB002002092
:1041A0002DE9F0478E6880469E420C461D46174614
:1041B000086836D8B1F80CC01CF4906F0DD13546A4
:1041C0002A46394600F0AEFA0020A2682368961B02
:1041D0002B44A6602360BDE8F087D1E9041606EB06
:1041E000460606EBD676A0EB0109013376104B4468
:1041F000B342324684BF1E4632461CF4806F12D052
:1042000011464046FFF768FF824600B34A462169DF
:10421000FFF786F9A38923F4906343F08003A38119
:1042200006E01E46CCE7404600F0E6FA824650B172
:10423000A6EB09030AEB09006661C4F810A0206030
:10424000A3602E46BCE721694046FFF7F1FE0C2330
:10425000C8F80030A3894FF0FF3043F04003A3813A
:10426000B9E700BF2DE9F04F936883B09046002B6B
:104270006DD0176882460C46086808378D6843E0A1
:10428000A38913F4906F2ED0D4E9041505EB4505EE
:10429000A0EB010B05EBD5750BEB06006D100130A3
:1042A000A8422A4684BF05462A465B0536D51146F4
:1042B0005046FFF711FF00283AD05A462169019075
:1042C000FFF72EF9A289019B22F4906242F080024E
:1042D000A281A5EB0B0203EB0B006561B3463546EB
:1042E00023612060A2605A46494600F01BFAD8F8C4
:1042F0000830A2682068551B58449E1BA5602060AA
:10430000C8F808601EB3083757E90296AB46002E7E
:10431000F9D0AE42B4D23546B346E4E7504600F099
:104320006BFA03460028D4D121695046FFF780FE7E
:104330000C2300224FF0FF30CAF80030A38943F06D
:104340004003A381C8E9012203B0BDE8F08F00203B
:10435000C8F8040003B0BDE8F08F00BF2DE9F04FAE
:104360008B4689899FB00C069046029004D5DBF8F5
:104370001020002A00F00D8100202021302205931A
:1043800098F8003001270B908DF831108C4E8DF885
:104390003220002B00F08680252B00F0F880454667
:1043A00003E0252B00F0888025466B786C1C002BE1
:1043B000F7D1B4EB080A75D04246534659460298E5
:1043C000FFF7EEFE01306DD00B9B6A7853440B93E0
:1043D000002A67D000234FF0FF3201340693CDE965
:1043E00008338DF85B301C93079206E02C46069B41
:1043F000801B07FA00F0184306902546052215F8A1
:10440000011B3046FFF746F8AA460028EED1069B6E
:10441000D90644BF20228DF85B201A0748BF2B2203
:10442000217848BF8DF85B202A2949D1059A116867
:104430000432002905927FDB09916178A51C2E29A1
:1044400057D0604C03222046FFF724F8002869D09B
:104450004022069B001B02FA00F00343069305F17D
:1044600001082B780622194657488DF83030FFF79F
:1044700011F8002866D0554B002B56D005AB0093A1
:104480005A46534B06A90298FDF724FA8146B9F122
:10449000FF3F07D00B9B4B440B9398F80030002B49
:1044A0007FF47AAFBBF80C305B064CBF4FF0FF30A7
:1044B0000B981FB0BDE8F08FB4EB080A8AD07BE7F9
:1044C000A1F13002092A88BFA246B8D8099B01E0B1
:1044D0002C460135297803EB830302EB4303A1F15A
:1044E0003002092AAA46F3D92E2904F102050993BC
:1044F000A7D19AF801102A292ED1059B0AF10200B2
:104500001A680433002A079205939AF802100AF1F8
:10451000030537DB2B4C824603222046FEF7BAFF09
:10452000002895D1A84655469BE7059B073323F005
:10453000070308330593ADE7494243F002030991AD
:1045400006937AE705AB00935A46214B06A90298D9
:10455000FDF702FD81469AE70023A1F13002092A06
:10456000079301D923E05546697803EB830302EBF7
:104570004303A1F13002092A05F1010AF3D90235FA
:1045800007935EE74FF0FF338246079359E74446AF
:1045900020E740210393FFF79FFD039BCBF800002A
:1045A000CBF8100030B14022CBF81420E4E6AA4644
:1045B000013546E70C23029A4FF0FF30136078E78D
:1045C000C4830008CC830008D0830008D5180008F5
:1045D000A141000838B50023064C05460846236073
:1045E00002F034FA431C00D038BD2368002BFBD006
:1045F0002B6038BDE002002000B50A4C054620685B
:1046000085B01C46C06852B1074BCDE9013200911C
:104610002B462246054900F023F800F00FFD044B1D
:104620001A46F2E708000020D8830008E883000853
:10463000E483000808B513460022FFF7DDFF00BF42
:104640000CB410B582B004AC54F8042B234601948A
:1046500000F03AF902B0BDE8104002B0704700BF68
:104660000EB430B582B005AC54F8042B054D0146AC
:1046700023462868019400F027F902B0BDE83040D5
:1046800003B070470800002042B110B50B49104636
:10469000144600F0FDFA18B9094810BD08487047E3
:1046A0000749204600F0F4FA0028F5D020460549D5
:1046B00000F0EEFA0028EFD0002010BD1C840008A6
:1046C00018840008E4830008014B93F82801704720
:1046D00070000020024B0A4601461868FFF7D4BF5D
:1046E0000800002010B4034CD4F8E440A44610BCE9
:1046F000604700BF7000002082B049B15AB16BB171
:1047000013780B601278101C18BF012002B070479C
:1047100001A9002AF3D1104602B070476FF00100E2
:10472000F4E700BF8842F0B40DD98B1883420AD950
:10473000841832B1224613F8014D994202F8014D16
:10474000F9D1F0BC70470F2A0ED80346541E002A38
:10475000F7D001340C44013B11F8012BA14203F8BE
:10476000012FF9D1F0BC704740EA01039B073AD111
:10477000A2F110073F0901F1200606EB071601F12F
:10478000100300F1100453F8105C103344F8105C6F
:1047900053F81C5C103444F81C5C53F8185C44F863
:1047A000185C53F8145CB34244F8145CEBD17B1CE6
:1047B0001B0112F00C0F194402F00F05034415D031
:1047C0000E46043DAD0803EB850C1C1F56F8047B18
:1047D00044F8047F6445F9D10135AD002B442944E8
:1047E00002F00302B2E7541E0346B2E72A46ADE7E1
:1047F000704700BF704700BF09B3F8B51446CAB18F
:1048000006460D4601F046F8A04202D32F46384630
:10481000F8BD21463046FFF75FFC07460028F6D07A
:1048200022462946FEF77CFE30462946FFF700FC6B
:104830003846F8BD2746FFF7FBFB3846F8BD114662
:10484000FFF74ABC9368013B002B93600FDA10B46A
:104850009469A34208DB0A2906D01368581C10602B
:104860001970084610BC704710BC00F0EFBA13680E
:10487000581C106019700846704700BF9BB1F8B50E
:1048800013440F4606465D1E541E01E0AC4208D09C
:104890003A4614F8011F3046FFF7D4FF431CF5D108
:1048A000F8BD0020F8BD0020704700BF936810B528
:1048B000144613B95360184610BD00F0A7FD00233D
:1048C000C4E9013310BD00BF2DE9F04F9FB08B4606
:1048D00090461C46039018B18369002B00F0B98004
:1048E000A34B9B4500F0BB80A24B9B4500F0C980C9
:1048F000A14B9B4504BF039BD3F80CB0BBF80C3015
:10490000180740F1B480DBF81030002B00F0AF80C6
:104910003023002120228DF8323098F800300594A1
:104920000B918DF83120954E0127002B00F08980E6
:10493000252B00F01781454603E0252B00F0A580CC
:1049400025466B786C1C002BF7D1B4EB080A78D0A5
:104950004246534659460398FFF790FF013070D006
:104960000B9B6A7853440B93002A6AD000234FF0C4
:10497000FF3201340693CDE908338DF85B301C9388
:10498000079206E02C46069B801B07FA00F01843AE
:1049900006902546052215F8011B3046FEF77AFDE4
:1049A000AA460028EED1069BD90644BF20228DF8E6
:1049B0005B201A0748BF2B22217848BF8DF85B2067
:1049C0002A2967D1059A1168043200290592C0F29C
:1049D0009E8009916178A51C2E2974D0684C032211
:1049E0002046FEF757FD002800F087804022069BF6
:1049F000001B02FA00F00343069305F101082B782F
:104A0000062219465F488DF83030FEF743FD002836
:104A100000F083805C4B002B72D005AB00935A46AC
:104A20005A4B06A90398FCF755FF8146B9F1FF3FA1
:104A300007D00B9B4B440B9398F80030002B7FF46E
:104A400077AFBBF80C305B0618D40B981FB0BDE8ED
:104A5000F08F00F0BBFC464B9B457FF445AF039BBA
:104A6000D3F804B0BBF80C3018073FF54CAF5946EB
:104A7000039800F063FA00283FF44AAF4FF0FF308C
:104A8000E4E7039BD3F808B038E7B4EB080A3FF437
:104A90006DAF5DE7A1F13002092A88BFA2469BD81D
:104AA000099B01E02C460135297803EB830302EBD7
:104AB0004303A1F13002092AAA46F3D92E2904F1B1
:104AC000020509938AD19AF801102A292FD1059B52
:104AD0000AF102001A680433002A079205939AF833
:104AE00002100AF1030538DB254C824603222046DA
:104AF000FEF7D0FC00287FF479AFA84655467EE744
:104B0000059B073323F007030833059391E74942D8
:104B100043F00203099106935CE705AB00935A4604
:104B20001A4B06A90398FDF717FA81467EE7002382
:104B3000A1F13002092A079301D915E05546697899
:104B400003EB830302EB4303A1F13002092A05F1D1
:104B5000010AF3D90235079340E74FF0FF3382464D
:104B600007933BE7444601E7AA46013536E700BF15
:104B7000948200087482000854820008C4830008EC
:104B8000CC830008D0830008D51800087D480008B1
:104B900010B4044C13460A460146206810BCFFF7C7
:104BA00093BE00BF0800002038B50C4609680546D2
:104BB00009B1FFF7F9FF21462846BDE83840FFF765
:104BC00037BA00BF314B1B6883425AD0426A70B576
:104BD0000546002A50D0D3689BB10026995941B1AF
:104BE0000C682846FFF724FA2146002CF8D16B6A9E
:104BF000DB680436802EF1D119462846FFF718FAF3
:104C00006A6A116800293DD02846FFF711FA6969E0
:104C100011B12846FFF70CFA6A6A1AB11146284604
:104C2000FFF706FAA96B11B12846FFF701FAE96B05
:104C300011B12846FFF7FCF9296C11B12846FFF79E
:104C4000F7F9E96D11B12846FFF7F2F9A96D11B135
:104C50002846FFF7EDF9696B11B12846FFF7E8F92F
:104C6000AB696BB1AB6A28469847A96C41B128463D
:104C7000BDE87040FFF798BF41690029C9D1D1E76D
:104C800070BD704769690029C3D1C7E708000020DB
:104C900080EA010C1CF0030F37D110F0030C20F058
:104CA000030021F0030150F8042B08BF51F8043B26
:104CB0000ED08CF0030C6FF07F434FEACC0C23FA3C
:104CC0000CFC51F8043B42EA0C0243EA0C0300BF1F
:104CD000A2F1013C9A4201BF2CEA020C1CF0803F79
:104CE00050F8042B51F8043BF2D04FEA02604FEA2F
:104CF0001222012828BFB0EB036F08BF1B0AF4D0B3
:104D000003F0FF03000EC01A704710F0030F0AD023
:104D100010F8012B11F8013B012A28BF9A42F4D068
:104D2000A2EB030070474DF8045D50F8042B01F02E
:104D3000030521F0030151F8043B022D26D04DD884
:104D400022F07F45B5EB132FA2F1013C2CEA020CB7
:104D50000DD11CF0803C08BF51F8043B0AD185EA14
:104D60000205B5EB036F0CD150F8042BE8E74FEACE
:104D700013235BE03CF07F4C54D10B784FEA126573
:104D800054E04FEA126503F0FF034FE04FEA02459B
:104D9000A2F1013C4FEA15452CEA020CB5EB134F8A
:104DA00018D11CF0803C08BF51F8043B07D185EABC
:104DB0000205B5EB034F09D150F8042BE6E75FEA93
:104DC0000C4C2FD10B884FEA12452FE04FEA0343DA
:104DD0004FEA12454FEA134328E000BF02F0FF05F7
:104DE000B5EB136FA2F1013C2CEA020C0DD11CF0C3
:104DF000803C08BF51F8043B0AD185EA0205B5EBB7
:104E0000032F0AD150F8042BE8E74FEA13630DE0B3
:104E100012F0FF0F06D051F8043B4FEA122523F0A1
:104E20007F4303E04FF0000020BC704705F0FF0215
:104E300003F0FF00012828BF904204BF2D0A1B0A7F
:104E4000F4D0A2EB000020BC704700BFF8B50D46BF
:104E50001446064608B1836943B3254B9C422AD0C9
:104E6000244B9C4229D0244B9C4208BFF468A26981
:104E7000A389A2601A0722D5236903B32268616956
:104E8000D31AEDB299422F4629DD0133A168501C97
:104E90000139A1602060157062699A4216D0A38919
:104EA000DB0701D50A2D11D03846F8BD00F08EFA87
:104EB0000F4B9C42D4D17468D9E7B468D7E7214638
:104EC000304600F03BF838B92369D7E72146304631
:104ED00000F052F90028E7D04FF0FF37E4E7214611
:104EE000304600F049F90028F6D101232268CDE7C9
:104EF000948200087482000854820008024B0A461B
:104F000001461868FFF7A2BF0800002010B4034C48
:104F1000D4F8E040A44610BC604700BF70000020F9
:104F200019B1FF2A03D80A700121084670478A2365
:104F30004FF0FF3103600846704700BF3B4B70B530
:104F40001D6806460C460DB1AB69DBB1384B9C427F
:104F50001ED0384B9C424AD0374B9C4208BFEC686D
:104F6000B4F90C2093B2190718D5206908B313F0CF
:104F700001022CD000226369A2605B42A36160B38E
:104F8000002070BD284600F021FA294B9C42E0D158
:104F90006C68B4F90C2093B21907E6D4DD063CD551
:104FA000580726D4206942F00803A3819BB2002849
:104FB000DDD103F42072B2F5007FD8D0304621460F
:104FC00000F01EFCA389206913F00102D2D19907D9
:104FD00058BF6269A2600028D2D1B4F90C301A0619
:104FE000CFD543F04003A3814FF0FF3070BDAC68D4
:104FF000B6E7616B51B104F14403994204D03046E5
:10500000FFF716F8B4F90C2000236363002320692E
:1050100022F02402C4E90003C5E7092342F040025C
:1050200033604FF0FF30A28170BD00BF0800002048
:1050300094820008748200085482000808B5062093
:1050400000F0B6FC012001F017FD00BF2DE9F04192
:105050008F890C463A07804641D44B68002B59DDB6
:10506000E66A002E53D0002317F48052D8F800507F
:10507000216AC8F8003051D101234046B047431C93
:105080005FD0A789E66A216A7F0705D56268636BEE
:10509000801A0BB1236CC01A024600234046B04769
:1050A000461C45D1D8F80030B4F90C20002B55D05F
:1050B0001D2B01D0162B5AD100222369C4E90032DE
:1050C000616BC8F8005011B304F14403994202D057
:1050D0004046FEF7ADFF00206063BDE8F0810E6939
:1050E000AEB10D680E60B90714BF00236369AD1B34
:1050F000A3600AE02B463246A76A216A4046B847B9
:105100000028A5EB000506440ADD002DF2DC002096
:10511000BDE8F0810B6C002BA2DCF8E7606DB3E713
:10512000A3894FF0FF3043F04003A381BDE8F08135
:10513000002322696360A3892260DA04C0D5606518
:10514000BEE7D8F80030002B9BD01D2B0CD0162BBF
:105150000AD0A38943F04003A381D9E72169C4E9B8
:105160000013D304ACD5EAE7C8F80050CFE742F00B
:105170004002A281CCE700BF0B6923B310B50446FF
:1051800082B008B18369BBB1104B994212D0104B69
:10519000994216D00F4B994208BFE168B1F90C3023
:1051A0002BB1204602B0BDE81040FFF74FBF0020F2
:1051B00002B010BD6168F1E7019100F007F90199B3
:1051C000E2E7A168EAE70020704700BF9482000888
:1051D000748200085482000820B1054B014618680B
:1051E000FFF7CABF034B0449186800F0B3BA00BF09
:1051F0000800002020800008795100080020704736
:10520000014900F0A7BA00BF79510008002070479B
:1052100070B568254A1E05FB02F50E4605F17401BE
:10522000FEF75AFF044640B100210C30666005F1DC
:1052300068022160A060FCF73BFA204670BD00BF09
:105240001E4B70B51D680646AB6943B34835D5E9BA
:105250000134013B05D51EE0013B5A1C04F16804F2
:1052600019D0B4F90C20002AF6D10025144B65663C
:10527000C4E90055A560C4E90455A5612946E36069
:10528000082204F15C00FCF713FAC4E90D55C4E9E7
:105290001255204670BD2C682CB12546D7E728460C
:1052A00000F010F8D2E704213046FFF7B1FF0446C2
:1052B00028600028F1D10C233360EAE72080000841
:1052C0000100FFFF2DE9F84F0023334AC0E91233F4
:1052D00012680365904208BF0123304908BF83610B
:1052E00081620546FFF7ACFF68602846FFF7A8FF1C
:1052F000A86028460024FFF7A3FF04236E68E86037
:105300002146F3607466C6E90044B460C6E904440B
:10531000B46106F15C000822FCF7CAF9DFF888B036
:10532000AF68DFF888A0DFF88890DFF888801C4B32
:10533000C6E9086BC6E90AA9C6F830802146FB60B9
:1053400008227C66C7E90044BC60C7E90444BC612C
:1053500007F15C00FCF7ACF9EE68124BC7E9087B7B
:10536000C7E90AA9C7F830802146F3607466C6E928
:105370000044B460C6E90444B46106F15C0008224C
:10538000FCF796F90123C6E9086BC6E90AA9C6F835
:105390003080AB61BDE8F88F208000080152000822
:1053A0000900010012000200215A0008495A0008B1
:1053B000895A0008A95A0008024B0349186800F0EE
:1053C000C9B900BF2080000879510008836903B97A
:1053D00078E77047704700BF704700BF704700BF55
:1053E000704700BF024B0349186800F08FB900BF37
:1053F00008000020FD510008024B0349186800F026
:1054000085B900BF080000200D5200089368002BEA
:1054100000F0FC802DE9F04FB1F90C300C469BB246
:10542000190783B0824690462BD522694AB313F000
:105430000202D8F8006033D000273D46D4F828B0E7
:10544000216ADFF8C492C5B14D452B463A4628BFC4
:105450004B465046D847002840F3CE80D8F8083055
:1054600007441B1A2D1AC8F80830002B00F0B3802F
:10547000D4F828B0216A002DE6D1D6E900750836A7
:10548000E1E721465046FFF759FD002840F03781FB
:10549000B4F90C30D8F800609BB213F00202CBD103
:1054A00013F0010940F0B4804D46A7682068002D34
:1054B00055D09A0540F1C080AF42BB4600F2EE8065
:1054C00013F4906F2FD0D4E9041707EB4707A0EB34
:1054D000010B07EBD777681C7F105844B8423A4657
:1054E00084BF07463A465B0540F1F08011465046BE
:1054F000FEF7F2FD002800F0FC805A462169019079
:10550000FEF70EF8A289019B22F4906242F080021D
:10551000A281A7EB0B0203EB0B006761AB462F46A2
:1055200023612060A2605A464946FFF7FBF82368D2
:10553000A2685B44AB460025D71BA7602360D8F860
:105540000870D944A7EB0B07C8F80870002F42D0A9
:10555000B4F90C30A7689BB22068002DA9D1D6E918
:1055600000950836A3E70BF1080353F8047C9B462B
:1055700053F8086C0833002FF7D03A460A2130461A
:10558000FDF788FF002854D00130A0EB06094B46F8
:1055900020682169BB4228BF3B468842626903D923
:1055A000A5681544AB421ADC9A4200F38180134689
:1055B000A56A3246216A5046A847051E1CDDB9EB94
:1055C00005096ED00120D8F808302E445B1B7F1BE4
:1055D000C8F8083013BB002003B0BDE8F08F314697
:1055E0002A46FFF79FF8236821462B442360504644
:1055F000FFF7C2FD0028E2D0B4F90C304FF0FF30C5
:1056000043F04003A38103B0BDE8F08F0020704752
:1056100033469146104617464E469B46002FA2D071
:105620000028B4D13A460A213046FDF733FF00285E
:10563000AAD17B1C9946ABE72369834217D36269E1
:10564000AA4214D82F4BA76A9D4294BF2B466FF0F5
:10565000004393FBF2F3216A02FB03F350464A46F0
:10566000B847B0F1000BC7DDA5EB0B0567E7AF420C
:1056700028BF2F4649463A46FFF754F8A3682268E8
:10568000DB1B3A44BB46A3602260002BECD12146D1
:105690005046FFF771FD0028E6D0ADE72F46AB4638
:1056A00041E721465046FFF767FD00288BD0A3E76E
:1056B0001A4631461D460193FFF734F8A168226867
:1056C000019BC91A1344A160236078E75046FFF795
:1056D00093F8034600287FF41CAF21695046FEF77B
:1056E000A7FC0C22B4F90C30CAF8002023F0800388
:1056F00084E70C22B4F90C30CAF800207EE74FF0A2
:10570000FF3069E7FEFFFF7F00FCFF7F2DE9F041DE
:1057100010F148071AD088460026D7E90154013D08
:105720000ED4A389013D012B06D9B4F90E30013303
:1057300002D02046C04706436B1C04F16804F0D138
:105740003F68002FE9D13046BDE8F0813E46304643
:10575000BDE8F0812DE9F84310F148061ED08846D7
:1057600007464FF00009D6E90154013D10D4A38942
:10577000013D012B08D9B4F90E30013304D0214684
:105780003846C04749EA00096B1C04F16804EED1B1
:105790003668002EE7D14846BDE8F883B146484652
:1057A000BDE8F88370B50C46B1F90E1096B000292B
:1057B00016461D4613DB6A4600F0A2F900280EDBF0
:1057C000019A4FF4806302F47042A2F50052B2FADB
:1057D00082F2002052092A60336016B070BD0022A8
:1057E000A3892A601B0604D540230020336016B02D
:1057F00070BD4FF480630020336016B070BD00BFF1
:105800008A890B46920706D5012103F147025961A7
:105810001A601A61704770B582B001AB6A460C46D7
:105820000646FFF7BFFF009905463046FEF754FCD9
:10583000B4F90C3070B1164A0099B262019A43F083
:105840008003A3812060C4E904018AB92B43A381AA
:1058500002B070BD9A05FBD4012123F0030304F1CB
:10586000470243F00203A381616122602261EFE7F6
:105870003046B4F90E1000F057F910B9B4F90C30F5
:10588000E4E7A38923F0030343F001031BB2DDE740
:105890000152000851F8043C181F002BBCBF0B58E4
:1058A000C018704710B580210446FEF715FC6064EF
:1058B00040B10022031F7C3043F8042F8342FBD108
:1058C000002010BD4FF0FF3010BD00BF436C0BB186
:1058D00000207047E6E700BF1F2970B5054608D8CD
:1058E000436C16460C464BB153F8240043F8246031
:1058F00070BD16224FF0FF302A6070BDFFF7D2FF57
:1059000008B96B6CF0E74FF0FF3070BD1F2938B558
:10591000054620D8426C0C466AB152F8213053B18A
:10592000012B16D0591C10D00025204642F82450D7
:105930009847284638BD284600F070F822460146B0
:105940002846BDE8384000F055B8162301202B60EA
:1059500038BD002038BD16234FF0FF302B6038BD16
:105960001F2921D838B5436C05460C4683B153F83E
:10597000242003EB84034AB1511C10D0012A0CD01F
:10598000002520461D609047284638BD012038BDBF
:10599000FFF788FF28B96B6CE9E7032038BD0220C8
:1059A00038BD4FF0FF3038BD4FF0FF30704700BFBB
:1059B000024B01461868FFF7A9BF00BF080000208E
:1059C000024B0A4601461868FFF786BF0800002010
:1059D000034B1868436C0BB10020704762E700BFAF
:1059E00008000020024B01461868FFF7B9BF00BF4E
:1059F0000800002070B50D460023074C06461146EE
:105A00002846236001F00AF8431C00D070BD2368CB
:105A1000002BFBD0336070BDE002002000F0EEBF31
:105A200010B50C46B1F90E1000F0A6F8002803DB03
:105A3000636D0344636510BDA38923F48053A38180
:105A400010BD00BF002070472DE9F041B1F90C40B6
:105A50009846E3050D461746B1F90E10064609D4DF
:105A600024F48054AC8143463A463046BDE8F041C8
:105A700000F01EB80223002200F068F8B5F90C40CF
:105A8000B5F90E10ECE700BF10B50C46B1F90E10D9
:105A900000F05CF8A389421C0EBF23F4805343F44A
:105AA00080536065A38110BDB1F90E1000F016B8E7
:105AB000F8B50E460025084C114607461A463046F2
:105AC000256000F0D1FF431C00D0F8BD2368002BF7
:105AD000FBD03B60F8BD00BFE002002038B50023DA
