:020000040800F2
:1000000000500020D11D0008191E0008191E00080C
:10001000191E0008191E0008191E00080000000023
:10002000000000000000000000000000191E000891
:10003000191E000800000000191E0008191E000803
:10004000191E0008191E0008191E0008191E0008B4
:10005000191E0008191E0008191E0008191E0008A4
:10006000191E0008191E0008191E0008191E000894
:10007000191E0008191E0008191E0008191E000884
:10008000191E0008191E0008191E0008191E000874
:10009000191E0008191E0008191E00088502000814
:1000A000191E0008191E0008191E0008191E000854
:1000B000851B0008191E0008191E0008191E0008DB
:1000C000191E0008191E0008191E0008191E000834
:1000D000191E0008191E0008191E0008191E000824
:1000E000191E0008191E0008191E00080000000053
:1000F0000000000000000000000000000000000000
:0C01000000000000000000005FF808F1A3
:10010C000348044B834202D0034B03B1184770479A
:10011C005C0400205C040020000000000548064937
:10012C000B1AD90F01EBA301491002D0034B03B1F9
:10013C00184770475C0400205C040020000000009D
:10014C0010B5064C237843B9FFF7DAFF044B13B113
:10015C000448AFF300800123237010BD5C04002021
:10016C00000000000C01000808B5044B1BB1044949
:10017C000448AFF30080BDE80840CFE70000000062
:10018C00600400200C010008002301461A461846A2
:10019C0000F03EB838B50A4C0A4D641BA4100AD0C6
:1001AC0004F18043013B05EB8305013C55F8043910
:1001BC009847002CF9D1BDE8384001F031BE00BFA2
:1001CC00441E0008401E000870B50D4E0D4D761BE8
:1001DC00B61006D00024013455F8043B9847A642CB
:1001EC00F9D1094E094D761B01F014FEB61006D05C
:1001FC000024013455F8043B9847A642F9D170BD50
:10020C00381E0008381E0008401E0008381E000862
:10021C00F0B4184C2568D5F8484114B365681F2D07
:10022C0024DC38B9AB1C0135656044F82310002080
:10023C00F0BC704704EB85060127C6F8882007FA46
:10024C0005F2D4F88871022847EA0207C4F88871CD
:10025C00C6F80831E6D1D4F88C311A43C4F88C2195
:10026C00E0E705F5A674C5F84841D7E74FF0FF3035
:10027C00DEE700BF1C1E000808B50A2001F0F4FCE4
:10028C00202001F07DFB01F037FD054A137810B9F1
:10029C000133DBB21370042B84BF0023137008BD31
:1002AC00780400203A4B3B4A196841F0010119606F
:1002BC0059680A405A601A6822F0847222F480321B
:1002CC001A601A6822F480221A605A6882B022F4EA
:1002DC00FE0200214FF41F005A60986000910191BA
:1002EC001A6842F480321A6003E0009AB2F5A06FEB
:1002FC0009D01A6802F400320192009A013200927D
:10030C00019A002AF1D0224B1B6813F4003318BF5A
:10031C0001230193019B012B05D01F4B4FF0006271
:10032C009A6002B070471D4A194B116841F01001D8
:10033C001160116821F003011160116841F0020194
:10034C0011605A685A605A685A605A6842F480625E
:10035C005A605A6822F47C125A605A6842F4E812C5
:10036C005A601A6842F080721A601A689201FCD5C1
:10037C005A68074922F003025A605A6842F0020296
:10038C005A604B6803F00C03082BFAD1C5E700BF89
:10039C00001002400000FFF800ED00E000200240D9
:1003AC00114A536803F00C03082B09D00F4B0E4A6B
:1003BC000F495268C2F303128A5CD3400B61704739
:1003CC0053685168C3F38343C90303F1020306D591
:1003DC005268920303D4054A02FB03F3E7E7054A8C
:1003EC0002FB03F3E3E700BF0010024000127A00A7
:1003FC003004002000093D000D4B0E4A196841F0F5
:10040C000101196059680A405A601A6822F0847216
:10041C0022F480321A601A6822F480221A605A6818
:10042C004FF41F0122F4FE025A609960704700BF1E
:10043C00001002400000FFF80C4B1A6822F48032C6
:10044C001A601A68B0F5803F22F480221A6008D036
:10045C00B0F5802F04D11A6842F4A0221A607047BC
:10046C0070471A6842F480321A60704700100240DC
:10047C0082B000230949019300E04AB90A68019B44
:10048C0001330193019BB3F5A06F02F40032F4D158
:10049C00024B1868C0F3404002B070470010024095
:1004AC00034A136823F0F80343EAC0031360704750
:1004BC0000100240014B1860704700BF0000424220
:1004CC00034A536823F47C1319430143516070476A
:1004DC0000100240014B1860704700BF60004242A0
:1004EC00034A536823F0030303435360704700BF70
:1004FC0000100240024B586800F00C00704700BF1F
:10050C0000100240034A536823F0F0030343536086
:10051C00704700BF00100240034A536823F4E063A5
:10052C0003435360704700BF00100240034A5368F6
:10053C0023F4605343EAC003536070470010024039
:10054C00044A137811B118431070704723EA000065
:10055C001070704709100240014B1860704700BFC3
:10056C00D8004242034A536823F440430343536088
:10057C00704700BF00100240064B002201281A7081
:10058C001A7005D0042802D105221A7070477047E2
:10059C001870704720100240014B1860704700BF64
:1005AC0080044242024A136A18431062704700BF2B
:1005BC0000100240014B1860704700BF3C044242DF
:1005CC001E4A536803F00C03082B10B421D01C4BAB
:1005DC0003601A491B4A4C68C4F30314145DE340CE
:1005EC0043604C68C4F30224145D23FA04F4846061
:1005FC004C68C4F3C224145DE340C36049685DF8E1
:10060C00044BC1F381310A44127CB3FBF2F3036156
:10061C00704753685168C3F38343C90303F1020362
:10062C0007D55268920304D4054A02FB03F3036016
:10063C00CFE7054A02FB03F30360CAE70010024050
:10064C0000127A004404002000093D00044A53695A
:10065C0011B118435061704723EA00005061704794
:10066C0000100240044A936911B11843906170471D
:10067C0023EA00009061704700100240044AD369DD
:10068C0011B11843D061704723EA0000D061704764
:10069C0000100240044AD36811B11843D06070476F
:1006AC0023EA0000D060704700100240044A13692E
:1006BC0011B118431061704723EA000010617047B4
:1006CC0000100240014B1860704700BF40044242CA
:1006DC00014B1860704700BF4C004242014B187030
:1006EC00704700BF071002404309012B0BD0022BAF
:1006FC00094B0CBF1B6A5B6A00F01F0023FA00F069
:10070C0000F001007047044B1B6800F01F0023FA37
:10071C0000F000F00100704700100240024A536ADA
:10072C0043F080735362704700100240034B9B6888
:10073C00184214BF01200020704700BF0010024077
:10074C00014B1870704700BF0A10024008B52F4BC0
:10075C0098421CD02E4B984223D02E4B98422AD034
:10076C002D4B984209D02D4B98422ED02C4B9842B1
:10077C0035D02C4B98423CD008BD01212020FFF7EE
:10078C0089FFBDE8084000212020FFF783BF01212D
:10079C000420FFF77FFFBDE8084000210420FFF78D
:1007AC0079BF01210820FFF775FFBDE80840002143
:1007BC000820FFF76FBF01211020FFF76BFFBDE88A
:1007CC00084000211020FFF765BF01214020FFF7F2
:1007DC0061FFBDE8084000214020FFF75BBF01210D
:1007EC008020FFF757FFBDE8084000218020FFF76D
:1007FC0051BF01214FF48070FFF74CFFBDE808405A
:10080C0000214FF48070FFF745BF00BF0008014086
:10081C00000C014000100140001401400018014080
:10082C00001C01400020014008B501210846FFF7DB
:10083C0031FFBDE8084000210120FFF72BBF00BFAE
:10084C002DE9F041CD780A88EB0648BF8B7805F08E
:10085C000F0748BF1F4312F0FF0F21D0066800237B
:10086C004FF0010C4FF00F0802E00133082B16D0AB
:10087C000CFA03F131EA0204F7D19C0008FA04FEE9
:10088C0026EA0E0607FA04F4282D46EA040634D0AC
:10089C00482D03F1010308BF0161082BE8D1066064
:1008AC00FF2A26D908234FF0010C0CFA03F434EA82
:1008BC00020146684FF00F0807D00133102B17D0F8
:1008CC000CFA03F434EA0201F7D19900203908FA42
:1008DC0001FE26EA0E0607FA01F1282D46EA01066A
:1008EC0009D0482D03F1010308BF0461102BE7D197
:1008FC004660BDE8F0814461DFE74161B5E700BFC8
:10090C004FF6FF7240F2024302804380704700BFF3
:10091C008368194214BF012000207047806880B2A0
:10092C00704700BFC368194214BF012000207047F4
:10093C00C06880B2704700BF016170474161704769
:10094C000AB1016170474161704700BFC1607047D7
:10095C0041F480338361816183618369836970476A
:10096C00064A136810B44FF680742340194341EAC9
:10097C0000105DF8044B1060704700BF0000014090
:10098C00014B1860704700BF1C0020420028194B17
:10099C0000F44012B4BFDB695B68B2F5401F30B4A1
:1009AC0084B21FD0C20214D5C0F303450322AA405F
:1009BC0023EA020343F0706321B1420D120104FAE1
:1009CC0002F213430B4A002830BCB4BFD36153600E
:1009DC007047420D120104FA02F223EA020343F0BB
:1009EC007063E9E7034D6A6822F0706223F070636C
:1009FC006A60E1E70000014001F0FC0303F1804371
:100A0C0003F5803301F0030110B49A6889000F24B8
:100A1C008C4022EA04029A609A685DF8044B884084
:100A2C0002439A60704700BF014B1860704700BFCB
:100A3C00DC00204270B4058C1B4E25F001052D0402
:100A4C002D0C0584048B058C24F0F304240442EA59
:100A5C000313240C1C43B042A4B2ADB21AD0134BF6
:100A6C00984217D0B0F1804F14D0A3F59833984228
:100A7C0010D003F5806398420CD003F58063984244
:100A8C0008D025F00A05294341F00101048370BC0C
:100A9C000184704725F00205294341F001010483CC
:100AAC0070BC0184704700BF002C01400034014031
:100ABC00F0B4048C1D4E24F010042404240C048483
:100ACC00B0F818C0078C150240F6FF4445EA033312
:100ADC0004EA0C0423430A01B0429BB2BFB292B2A7
:100AEC001AD0134CA04217D0B0F1804F14D0A4F5FB
:100AFC009834A04210D004F58064A0420CD004F5C8
:100B0C008064A04208D027F0A0070F4347F01002E2
:100B1C000383F0BC0284704727F020073A4342F06D
:100B2C0010020383F0BC0284704700BF002C01400C
:100B3C000034014008B57C4B984242D0B0F1804F54
:100B4C004BD07A4B984252D0794B98422FD0794B5C
:100B5C00984256D0784B98425DD0784B984264D0EE
:100B6C00774B984200F08380764B984267D0764B57
:100B7C00984200F08880754B984200F09080744B3E
:100B8C00984200F09880734B984200F09E80724B14
:100B9C00984200F0A480714B984200F0AC80704BEE
:100BAC00984258D06F4B984200F0B18008BD01219B
:100BBC000420FFF77BFDBDE8084000210420FFF76F
:100BCC0075BD01214FF40060FFF764FDBDE80840DE
:100BDC0000214FF40060FFF75DBD01210846FFF7CF
:100BEC0065FDBDE8084000210120FFF75FBD012134
:100BFC000220FFF75BFDBDE8084000210220FFF753
:100C0C0055BD01210820FFF751FDBDE8084000212A
:100C1C000820FFF74BBD01211020FFF747FDBDE871
:100C2C00084000211020FFF741BD01212020FFF7D3
:100C3C003DFDBDE8084000212020FFF737BD012114
:100C4C004FF40020FFF726FDBDE8084000214FF4CB
:100C5C000020FFF71FBD01214FF40030FFF71AFDF4
:100C6C00BDE8084000214FF40030FFF713BD01210F
:100C7C004FF40050FFF70EFDBDE8084000214FF483
:100C8C000050FFF707BD01214FF48010FFF702FD64
:100C9C00BDE8084000214FF48010FFF7FBBC012198
:100CAC004FF40010FFF7F6FCBDE8084000214FF4AC
:100CBC000010FFF7EFBC01214020FFF7F7FCBDE867
:100CCC00084000214020FFF7F1BC01218020FFF7F4
:100CDC00EDFCBDE8084000218020FFF7E7BC0121B6
:100CEC004FF48070FFF7E2FCBDE8084000214FF4A0
:100CFC008070FFF7DBBC01214FF48030FFF7CAFC9A
:100D0C00BDE8084000214FF48030FFF7C3BC01213F
:100D1C004FF48020FFF7BEFCBDE8084000214FF4E3
:100D2C008020FFF7B7BC00BF002C0140000400403E
:100D3C0000080040000C004000100040001400406F
:100D4C0000340140004C014000500140005401406F
:100D5C0000180040001C00400020004000400140F2
:100D6C000044014000480140274A038890429BB24E
:100D7C0012D002F5006290420ED0B0F1804F0BD031
:100D8C00A2F59832904207D002F58062904203D0CF
:100D9C0002F58062904203D14A8823F0700313431A
:100DAC001A4A904218D002F58062904214D030B4A6
:100DBC0023F44073CC888D8802F58C329BB223438C
:100DCC0090420C880380858504850DD10B7A0386AF
:100DDC00012330BC8382704703808B8883850B880A
:100DEC000385012383827047094B9842EED003F5AB
:100DFC0040639842EAD003F580639842E6D003F54D
:100E0C0080639842E2D0E3E7002C014000100040E0
:100E1C0000340140038C23F001031B041B0C0384DE
:100E2C00038C8288F0B423F002030D894F88048B65
:100E3C001A4E1B043D4324F073041B0C2B43240457
:100E4C000D88240CB0429BB292B244EA05040ED039
:100E5C00134DA8420BD005F54065A84207D005F507
:100E6C008065A84203D005F58065A8420ED14E8955
:100E7C008D89CF8923F00803334322F440728E8886
:100E8C003D4323F004032A43334392B2C988828042
:100E9C0004838186F0BC0384704700BF002C0140A2
:100EAC0000340140038C23F010031B041B0C03843F
:100EBC00038CF0B423F0200384880E89028B4F88B6
:100ECC00184D1B043E4322F4E6421B0C43EA061366
:100EDC0012040E88120C42EA0622A8429BB2A4B25B
:100EEC0092B20AD005F50065A84206D0C988848064
:100EFC000283F0BC0187038470474D898E89CF89AA
:100F0C0023F0800343EA05134FF6BF751D408B8811
:100F1C0024F440643E4345EA031344EA86049BB23E
:100F2C00A4B2E3E7002C0140038C23F480731B0470
:100F3C001B0C0384038CF0B48588828B4F880C893E
:100F4C00184E23F400731B0422F073023C431B0C59
:100F5C000F88120443EA0423120CB0429BB2ADB2C8
:100F6C0042EA070209D0104CA04206D0C9888580FD
:100F7C008283F0BC8187038470474C898E89CF892A
:100F8C0023F4006343EA04234FF6FF341C408B88A0
:100F9C0025F440553E4344EA032345EA06149BB22C
:100FAC00A5B2E3E7002C014000340140038C23F48C
:100FBC0080531B041B0C0384038CF0B423F40053E8
:100FCC0084880E89828B4F88124D1B043E4322F479
:100FDC00E6421B0C43EA063312040E88120C42EA5A
:100FEC000622A8429BB2A4B292B20BD005F50065C2
:100FFC00A84207D0C98884808283F0BCA0F8401036
:10100C00038470478D8924F4804444EA8514A4B287
:10101C00F0E700BF002C0140F8B50B880D460446E4
:10102C00002B4DD0042B00F09D80082B028C8B885C
:10103C00488856D022F4805212040989534E120C5F
:10104C002284A78B228C090341EA032140F6FF433B
:10105C003B400B43B4424FEA00319BB292B289B28F
:10106C0019D006F50066B44215D0B4F1804F12D0F9
:10107C00A6F59836B4420ED006F58066B4420AD076
:10108C0006F58066B44206D047F6FF510A4002438B
:10109C0042F4805204E022F40052114341F4805295
:1010AC00A3832284A28BE98822F440621204120CDE
:1010BC00A283A38B9BB243EA01239BB2A383F8BD0B
:1010CC000B898A884988FFF7B5FC038BEA8823F0E3
:1010DC000C031B041B0C0383038B9BB21343038372
:1010EC00F8BD22F480721204120C0F892284A18B99
:1010FC00264E228C89B221F0F3010B4343EA0713ED
:10110C000102B4429BB292B289B218D006F50066C5
:10111C00B44214D0B4F1804F11D0A6F59836B44235
:10112C000DD006F58066B44209D006F58066B4424F
:10113C0005D022F42062024342F4807204E022F4CF
:10114C000072114341F48072A3832284A38BEA883A
:10115C0023F00C031B041B0CA383A38B9BB2134324
:10116C00A383F8BD0B898A884988FFF7A1FC028B01
:10117C00E98822F440621204120C0283038B9BB2A6
:10118C0043EA01239BB20383F8BD00BF002C01404E
:10119C00F8B50D464988AA882B8800290CBF022671
:1011AC000026012A0CBF0227012704460BBB2B8902
:1011BC00FFF740FC028B2B89E88822F00C0212040A
:1011CC00120C2283228B92B2104331463A46208372
:1011DC002046FFF76DFC228BE98822F44062120452
:1011EC00120C2283238B9BB243EA01239BB22383F1
:1011FC00F8BD2B89FFF75CFC028BE9882B8922F464
:10120C0040621204120C0283008B80B240EA01206F
:10121C0080B23A46208331462046FFF70BFC238BE5
:10122C00EA8823F00C031B041B0C2383238B9BB237
:10123C0013432383F8BD00BF70B40B884C888A8895
:10124C00CE880D89234313434C898A8933432B431E
:10125C00234313439BB270BCA0F84430704700BFCB
:10126C0000234FF6FF7282800380C3804380037299
:10127C00704700BF0023038043808380C3800381B9
:10128C0043818381C38170470023012282800380C4
:10129C004380C38003817047002303804380838095
:1012AC00C380038143818381704700BF038821B1D0
:1012BC009BB243F001030380704723F001031B042E
:1012CC001B0C0380704700BFB0F8443039B16FEA93
:1012DC0043436FEA53439BB2A0F844307047C3F3C7
:1012EC000E03A0F84430704783899BB212B11943A6
:1012FC008181704723EA01018181704781827047A7
:10130C000A43A0F848207047FFF7EEBF038923F08B
:10131C0007031B041B0C0381704700BF028922F0DA
:10132C0070031B041B0C1943018103899BB243F00E
:10133C0007030381704700BF38B50D46602D114679
:10134C0004464FF001020ED0FFF774FB238923F003
:10135C0070031B041B0C2B43238123899BB243F08A
:10136C000703238138BDFFF7A3FBEFE710B4048913
:10137C0042EA03231943E4B20C43A4B20481038967
:10138C005DF8044B23F077031B041B0C43F077032D
:10139C000381704710B4048942EA03231943E4B271
:1013AC000C43A4B2048103895DF8044B9BB243F453
:1013BC0080430381704700BF10B404890A4342EA9A
:1013CC000323E4B21C43A4B204815DF8044B7047C0
:1013DC0001858282704700BF038823F070031B04D1
:1013EC001B0C194301807047038923F070031B0405
:1013FC001B0C19430181704770B40689048B058C52
:10140C0024F4407424F0030425F0220526F007068A
:10141C0024042D0442EA03133604240C2D0C360C40
:10142C0044F480741D43314344F00104ADB2018196
:10143C000483058470BC7047038B23F070031B047A
:10144C001B0C194301837047038B23F4E0431B04EB
:10145C001B0C43EA012189B201837047838B23F073
:10146C0070031B041B0C194381837047838B23F47B
:10147C00E0431B041B0C43EA012189B281837047B2
:10148C00038821B19BB243F080030380704723F0A3
:10149C0080031B041B0C0380704700BF838821B1A1
:1014AC009BB243F004038380704723F004031B04B6
:1014BC001B0C8380704700BF838821B19BB243F023
:1014CC0008038380704723F008031B041B0C8380E4
:1014DC00704700BF838821B19BB243F00103838026
:1014EC00704723F001031B041B0C8380704700BF63
:1014FC00038B23F008031B041B0C19430183704757
:10150C00038B23F400631B041B0C43EA012189B2F7
:10151C0001837047838B23F008031B041B0C1943B6
:10152C0081837047838B23F400631B041B0C43EAF9
:10153C00012189B281837047038B23F004031B04C0
:10154C001B0C194301837047038B23F480631B042A
:10155C001B0C43EA012189B201837047838B23F072
:10156C0004031B041B0C194381837047838B23F4E6
:10157C0080631B041B0C43EA012189B281837047F1
:10158C00038B23F080031B041B0C1943018370474E
:10159C00038BC3F30E0343EA012189B20183704725
:1015AC00838B23F080031B041B0C1943818370472E
:1015BC00838BC3F30E0343EA012189B28183704705
:1015CC00038C23F002031B041B0C1943018470478A
:1015DC00038C23F008031B041B0C19430184704774
:1015EC00038C23F020031B041B0C43EA011189B26A
:1015FC0001847047038C23F080031B041B0C43EA0B
:10160C00011189B201847047038C23F400731B040D
:10161C001B0C43EA012189B201847047038C23F42B
:10162C0000631B041B0C43EA012189B2018470473F
:10163C00038C23F400531B041B0C43EA013189B2C5
:10164C0001847047038C10B401248C409BB223EAB4
:10165C0004030384038C5DF8044B8A401A4392B252
:10166C0002847047038C10B404248C409BB223EA90
:10167C0004030384038C5DF8044B8A401A4392B232
:10168C0002847047038C10B401248C409BB223EA73
:10169C00040321F008040384183074B10439C1F335
:1016AC004E0112020B585DF8044B23F4E0430B502F
:1016BC000B5892B21A430A50704749085DF8044B14
:1016CC000B5823F070030B500B581A430A507047F9
:1016DC00038821B19BB243F002030380704723F0CF
:1016EC0002031B041B0C0380704700BF038821B14D
:1016FC009BB243F004030380704723F004031B04E4
:10170C001B0C0380704700BF838821B19BB243F050
:10171C0080038380704723F080031B041B0C8380A1
:10172C00704700BF038823F008031B041B0C0380C5
:10173C0003889BB219430180704700BF838823F054
:10174C0070031B041B0C838083889BB2194381801C
:10175C00704700BF038923F007031B041B0C038194
:10176C0003899BB219430181704700BF038923F0A1
:10177C0080031B041B0C038103899BB21943018159
:10178C00704700BF818470478185704781867047A0
:10179C000187704781877047A0F84010704700BFE1
:1017AC00038B23F00C031B041B0C0383038B9BB2D6
:1017BC0019430183704700BF028B22F4406212046C
:1017CC00120C0283038B9BB243EA012189B2018381
:1017DC00704700BF838B23F00C031B041B0C83830B
:1017EC00838B9BB219438183704700BF828B22F499
:1017FC0040621204120C8283838B9BB243EA012158
:10180C0089B28183704700BF038823F440731B04A3
:10181C001B0C038003889BB219430180704700BFE7
:10182C00808E80B2704700BF008F80B2704700BFBF
:10183C00808F80B2704700BFB0F8400080B2704714
:10184C00808C80B2704700BF008D80B2704700BFA3
:10185C00038A194214BF012000207047C94389B282
:10186C0001827047038A828911EA030092B203D085
:10187C000A4214BF01200020704700BFC94389B23F
:10188C0001827047044B054900221A605A609A6025
:10189C00DA605961704700BF00040140FFFF0F0080
:1018AC00837943B31E4B01681A6822EA010210B413
:1018BC001A605A6822EA01025A60027902F18042E7
:1018CC0002F582321468214311609968026821EA9A
:1018DC0002019960D96821EA0201D9604179102985
:1018EC0014D001F1804303F582335DF8044B196881
:1018FC000A431A6070470379016803F1804303F5CA
:10190C0082331A6822EA01021A60704799685DF8FE
:10191C00044B11439960D9680A43DA60704700BFE1
:10192C000004014000234FF4406282800360837105
:10193C00704700BF024A136918431061704700BF1B
:10194C0000040140034B5B69034214BF01200020DB
:10195C00704700BF00040140014B5861704700BF45
:10196C0000040140054B1A685B69034004D0024235
:10197C0014BF012000207047184670470004014036
:10198C00014B5861704700BF0004014030B585B071
:10199C000F4A104C1049114D114B00910820012198
:1019AC00CDE901520393FEF75DFE20466946FEF732
:1019BC0047FF204601A9FEF743FF204602A9FEF788
:1019CC003FFF204603A9FEF73BFF05B030BD00BF2B
:1019DC0000010310000C01404000031080000310B4
:1019EC000002031002484FF47071FEF7A5BF00BF50
:1019FC00000C014002484FF47071FEF79FBF00BF0E
:101A0C00000C014010B5144C4FF470712046FEF7D9
:101A1C0095FF642000F098F820464021FEF78CFFDB
:101A2C00322000F091F820468021FEF785FF32200D
:101A3C0000F08AF820464FF48071FEF77DFF3220CB
:101A4C0000F082F820464FF40071FEF775FFBDE8F8
:101A5C001040322000F078B8000C014010B5144C46
:101A6C004FF470712046FEF769FF642000F06CF8AB
:101A7C0020464FF40071FEF75FFF322000F064F84F
:101A8C0020464FF48071FEF757FF322000F05CF8CF
:101A9C0020468021FEF750FF322000F055F82046FA
:101AAC004021FEF749FFBDE81040322000F04CB851
:101ABC00000C0140F8B50B4F0B4E0C4D0C4C002399
:101ACC003B60C82033602B60236000F03DF801239D
:101ADC003B60C82033602B602360BDE8F84000F009
:101AEC0033B800BF988121429C812142A0812142C0
:101AFC00A481214210B50C4684B00121002302467A
:101B0C000846ADF80820ADF80630ADF80A30ADF84F
:101B1C000440FEF7B3FD01A94FF08040FFF724F914
:101B2C00012211464FF08040FFF7DEFB04B010BDE0
:101B3C0000B583B0034B019301A800F03BF803B050
:101B4C005DF804FB1C02020110B5012104464FF0A4
:101B5C008040FFF7ABFB074A002313601CB100BFAA
:101B6C001368A342FBD3BDE8104000214FF0804026
:101B7C00FFF79CBB7C04002008B501214FF080408E
:101B8C00FFF770FE00B908BD01214FF08040FFF750
:101B9C0065FE024A13680133136008BD7C04002003
:101BAC00034B40F0BF6040F40030D860704700BF7A
:101BBC0000ED00E0C378FBB130B4154A4378D1682E
:101BCC008278144D0078C943C1F30221C1F1040499
:101BDC0003FA04F40F23CB401340234329181B01B1
:101BEC0000F01F0401224009DBB2A24081F800334F
:101BFC0045F8202030BC7047037806485A0920323B
:101C0C0003F01F03012101FA03F340F8223070475F
:101C1C0000ED00E000E100E021F06041024B21F01A
:101C2C007F0108439860704700ED00E021B1054B3F
:101C3C001A69104318617047024A136923EA0000BD
:101C4C001061704700ED00E0044A136804280CBFD3
:101C5C0043F0040323F004031360704710E000E02A
:101C6C006FF00400FFF7F0BF0B4A42F2283303FB7E
:101C7C0000F0002350609360136843F0010313607D
:101C8C00136803F00113012BFAD01368002123F021
:101C9C00010313609160704710E000E010B5012162
:101CAC0084B00820FEF7DEFC01210846FEF7DAFCC2
:101CBC0005210120FEF7A0FE2024694648230C488C
:101CCC008DF80330ADF80040FEF7BAFD4FF44062DA
:101CDC00012302A8ADF80C208DF80E300294FFF70A
:101CEC00DFFD044B019301A8FFF764FF04B010BDA6
:101CFC00000C01401701010138B5104C2378012B61
:101D0C0008D020210E48FEF703FE012808BF2070E2
:101D1C00002038BD0A482021FEF7FAFD05460028B0
:101D2C00EFD11420FFF7A0FF202105482570FEF706
:101D3C00EFFDB0FA80F0400938BD00BF5804002018
:101D4C00000C0140024B13B10248FEF71DBA70475C
:101D5C0000000000A101000808B54FF4A060FFF7D7
:101D6C001FFFFFF713FEFFF77BFF472140F2E73021
:101D7C00FFF7C0FEFFF7DCFEFFF790FF104C237857
:101D8C0053B1012B0DD0022B10D0032B13D0042BED
:101D9C00F6D1FFF78FFEF2E7FFF72CFE2378012B2D
:101DAC00F1D1FFF71FFE2378022BEED1FFF72AFEAD
:101DBC002378032BEBD1FFF751FE2378E7E700BF25
:101DCC0078040020002103E00B4B5B584350043196
:101DDC000A480B4B42189A42F6D30A4A02E00023F7
:101DEC0042F8043B084B9A42F9D3FEF75BFAFEF734
:101DFC00EBF9FFF7B1FF7047441E0008000000200C
:101E0C005C0400205C04002080040020FEE700003D
:101E1C0008000020F8B500BFF8BC08BC9E4670470F
:0C1E2C00F8B500BFF8BC08BC9E4670472B
:081E3800511D000875010008AE
:041E40004D01000848
:101E4400080000200000000000000000F402002050
:101E54005C030020C4030020000000000000000018
:101E6400000000000000000000000000000000006E
:101E7400000000000000000000000000000000005E
:101E8400000000000000000000000000000000004E
:101E9400000000000000000000000000000000003E
:101EA400000000000000000000000000000000002E
:101EB400000000000000000000000000000000001E
:101EC400000000000000000000000000000000000E
:101ED40000000000000000000000000000000000FE
:101EE40000000000000000000000000000000000EE
:101EF40001000000000000000E33CDAB34126DE68B
:101F0400ECDE05000B0000000000000000000000F3
:101F140000000000000000000000000000000000BD
:101F240000000000000000000000000000000000AD
:101F3400000000000000000000000000000000009D
:101F4400000000000000000000000000000000008D
:102274000000000000000000010203040607080932
:1022840000A24A0400000000010203040102030446
:0C2294000607080902040608010000000B
:0400000508001DD101
:00000001FF
